:10000000000000206D040000B1040000B99F020050
:10001000BD9F0200C19F0200C59F020000000000BA
:10002000000000000000000000000000B10400001B
:10003000B104000000000000B1040000B1040000A1
:10004000B1040000B1040000B1040000B1040000DC
:10005000B1040000B1040000B1040000B1040000CC
:10006000B1040000B1040000B1040000B1040000BC
:10007000B1040000B1040000B1040000B1040000AC
:10008000B1040000B1040000B1040000B10400009C
:10009000B1040000B1040000C99F0200B1040000D7
:1000A000B1040000B1040000B1040000B10400007C
:1000B000B1040000B1040000B1040000B10400006C
:1000C000B1040000B1040000B1040000B10400005C
:1000D000B1040000B1040000B1040000B10400004C
:1003F000B1040000B1040000B1040000FFFFFFFFE2
:10040000FFFFFFFFFFFFFFFFFFFFFFFFFE7FFFFF7D
:1004100010B5054C237833B9044B13B10448AFF33E
:1004200000800123237010BDAC06FF1F00000000F8
:10043000B01C0600084B10B51BB108490848AFF3C3
:1004400000800848036803B910BD074B002BFBD0A0
:10045000BDE81040184700BF00000000B006FF1FB5
:10046000B01C0600A806FF1F0000000072B60021A5
:10047000002200230024002500260027B846B946A4
:10048000BA46BB46BC4606488546064880470648ED
:1004900080470648804762B629F098FDFEE70000D5
:1004A0000000002039A2020069A20200B90805007C
:1004B000FFF7FEBF81F0004102E000BF83F0004380
:1004C00030B54FEA41044FEA430594EA050F08BFEF
:1004D00090EA020F1FBF54EA000C55EA020C7FEAB3
:1004E000645C7FEA655C00F0E2804FEA5454D4EB30
:1004F0005555B8BF6D420CDD2C4480EA020281EAFA
:10050000030382EA000083EA010180EA020281EA31
:100510000303362D88BF30BD11F0004F4FEA013183
:100520004FF4801C4CEA113102D0404261EB410192
:1005300013F0004F4FEA03334CEA133302D0524218
:1005400063EB430394EA050F00F0A780A4F10104D4
:10055000D5F1200E0DDB02FA0EFC22FA05F280180E
:1005600041F1000103FA0EF2801843FA05F35941F4
:100570000EE0A5F120050EF1200E012A03FA0EFC73
:1005800028BF4CF0020C43FA05F3C01851EBE3719D
:1005900001F0004507D54FF0000EDCF1000C7EEBBA
:1005A00000006EEB0101B1F5801F1BD3B1F5001FF8
:1005B0000CD349085FEA30004FEA3C0C04F1010417
:1005C0004FEA445212F5800F80F09A80BCF1004F40
:1005D00008BF5FEA500C50F1000041EB045141EAC2
:1005E000050130BD5FEA4C0C404141EB010111F4C3
:1005F000801FA4F10104E9D191F0000F04BF01466E
:100600000020B1FA81F308BF2033A3F10B03B3F14B
:1006100020020CDA0C3208DD02F1140CC2F10C02DB
:1006200001FA0CF021FA02F10CE002F11402D8BF39
:10063000C2F1200C01FA02F120FA0CFCDCBF41EA05
:100640000C019040E41AA2BF01EB0451294330BDD4
:100650006FEA04041F3C1CDA0C340EDC04F11404B1
:10066000C4F1200220FA04F001FA02F340EA030088
:1006700021FA04F345EA030130BDC4F10C04C4F1CE
:10068000200220FA02F001FA04F340EA03002946AE
:1006900030BD21FA04F0294630BD94F0000F83F4F8
:1006A000801306BF81F480110134013D4EE77FEADB
:1006B000645C18BF7FEA655C29D094EA050F08BF27
:1006C00090EA020F05D054EA000C04BF1946104608
:1006D00030BD91EA030F1EBF0021002030BD5FEA4C
:1006E000545C05D14000494128BF41F0004130BD74
:1006F00014F580043CBF01F5801130BD01F00045C8
:1007000045F0FE4141F470014FF0000030BD7FEA3A
:10071000645C1ABF194610467FEA655C1CBF0B4635
:10072000024650EA013406BF52EA033591EA030F4C
:1007300041F4002130BD00BF90F0000F04BF002144
:10074000704730B54FF4806404F132044FF0000577
:100750004FF0000150E700BF90F0000F04BF0021F0
:10076000704730B54FF4806404F1320410F0004556
:1007700048BF40424FF000013EE700BF42004FEA51
:10078000E2014FEA31014FEA02701FBF12F07F43CE
:1007900093F07F4F81F06051704792F0000F14BFCB
:1007A00093F07F4F704730B54FF4607401F000450F
:1007B00021F0004120E700BF50EA010208BF704766
:1007C00030B54FF000050AE050EA010208BF70475B
:1007D00030B511F0004502D5404261EB41014FF4C4
:1007E000806404F132045FEA915C3FF4DCAE4FF0C8
:1007F00003025FEADC0C18BF03325FEADC0C18BFAF
:10080000033202EBDC02C2F1200300FA03FC20FAFF
:1008100002F001FA03FE40EA0E0021FA02F114444C
:10082000C1E600BF70B54FF0FF0C4CF4E06C1CEA61
:1008300011541DBF1CEA135594EA0C0F95EA0C0FD6
:1008400000F0DEF82C4481EA030621EA4C5123EA49
:100850004C5350EA013518BF52EA033541F4801178
:1008600043F4801338D0A0FB02CE4FF00005E1FB2B
:1008700002E506F00042E0FB03E54FF00006E1FB75
:1008800003569CF0000F18BF4EF0010EA4F1FF04B8
:10089000B6F5007F64F5407404D25FEA4E0E6D41F8
:1008A00046EB060642EAC62141EA55514FEAC52009
:1008B00040EA5E504FEACE2EB4F1FD0C88BFBCF585
:1008C000E06F1ED8BEF1004F08BF5FEA500E50F136
:1008D000000041EB045170BD06F0004646EA0101FC
:1008E00040EA020081EA0301B4EB5C04C2BFD4EB2E
:1008F0000C0541EA045170BD41F480114FF0000E27
:10090000013C00F3AB8014F1360FDEBF002001F094
:10091000004170BDC4F10004203C35DA0C341BDC0E
:1009200004F11404C4F1200500FA05F320FA04F0E0
:1009300001FA05F240EA020001F0004221F0004114
:1009400010EBD37021FA04F642EB06015EEA430E87
:1009500008BF20EAD37070BDC4F10C04C4F12005B7
:1009600000FA04F320FA05F001FA04F240EA02006A
:1009700001F0004110EBD37041F100015EEA430E3B
:1009800008BF20EAD37070BDC4F1200500FA05F25B
:100990004EEA020E20FA04F301FA05F243EA0203DA
:1009A00021FA04F001F0004121FA04F220EA0200E9
:1009B00000EBD3705EEA430E08BF20EAD37070BD2F
:1009C00094F0000F0FD101F00046400041EB01010F
:1009D00011F4801F08BF013CF7D041EA060195F0F1
:1009E000000F18BF704703F00046520043EB0303AB
:1009F00013F4801F08BF013DF7D043EA0603704798
:100A000094EA0C0F0CEA135518BF95EA0C0F0CD0A2
:100A100050EA410618BF52EA4306D1D181EA0301E8
:100A200001F000414FF0000070BD50EA410606BFE2
:100A30001046194652EA430619D094EA0C0F02D127
:100A400050EA013613D195EA0C0F05D152EA03366C
:100A50001CBF104619460AD181EA030101F000418A
:100A600041F0FE4141F470014FF0000070BD41F0D3
:100A7000FE4141F4780170BD70B54FF0FF0C4CF4AD
:100A8000E06C1CEA11541DBF1CEA135594EA0C0FCC
:100A900095EA0C0F00F0A7F8A4EB050481EA030E19
:100AA00052EA03354FEA013100F088804FEA033300
:100AB0004FF0805545EA131343EA12634FEA0222CE
:100AC00045EA111545EA10654FEA00260EF000418F
:100AD0009D4208BF964244F1FD0404F5407402D2E1
:100AE0005B084FEA3202B61A65EB03055B084FEA72
:100AF00032024FF480104FF4002CB6EB020E75EB6F
:100B0000030E22BFB61A754640EA0C005B084FEA96
:100B10003202B6EB020E75EB030E22BFB61A754613
:100B200040EA5C005B084FEA3202B6EB020E75EB5E
:100B3000030E22BFB61A754640EA9C005B084FEAD6
:100B40003202B6EB020E75EB030E22BFB61A7546E3
:100B500040EADC0055EA060E18D04FEA051545EAD2
:100B600016754FEA06164FEAC30343EA52734FEA7B
:100B7000C2025FEA1C1CC0D111F4801F0BD141EAF4
:100B800000014FF000004FF0004CB6E711F4801F59
:100B900004BF01430020B4F1FD0C88BFBCF5E06F39
:100BA0003FF6AFAEB5EB030C04BFB6EB020C5FEA49
:100BB000500C50F1000041EB045170BD0EF0004E9E
:100BC0004EEA113114EB5C04C2BFD4EB0C0541EAD0
:100BD000045170BD41F480114FF0000E013C90E6CD
:100BE00045EA060E8DE60CEA135594EA0C0F08BF91
:100BF00095EA0C0F3FF43BAF94EA0C0F0AD150EA90
:100C000001347FF434AF95EA0C0F7FF425AF104622
:100C100019462CE795EA0C0F06D152EA03353FF44A
:100C2000FDAE1046194622E750EA410618BF52EAC7
:100C300043067FF4C5AE50EA41047FF40DAF52EA9B
:100C400043057FF4EBAE12E74FF0FF3C06E000BF38
:100C50004FF0010C02E000BF4FF0010C4DF804CD45
:100C60004FEA410C7FEA6C5C4FEA430C18BF7FEA05
:100C70006C5C1BD001B050EA410C0CBF52EA430C33
:100C800091EA030F02BF90EA020F0020704710F1B3
:100C9000000F91EA030F58BF994208BF90422CBF42
:100CA000D8176FEAE37040F0010070474FEA410C3B
:100CB0007FEA6C5C02D150EA013C07D14FEA430C59
:100CC0007FEA6C5CD6D152EA033CD3D05DF8040BCA
:100CD000704700BF8446104662468C4619466346FC
:100CE00000E000BF01B5FFF7B7FF002848BF10F1D3
:100CF000000F01BD4DF808EDFFF7F4FF0CBF012018
:100D000000205DF808FB00BF4DF808EDFFF7EAFF93
:100D100034BF012000205DF808FB00BF4DF808ED4E
:100D2000FFF7E0FF94BF012000205DF808FB00BF43
:100D30004DF808EDFFF7CEFF94BF012000205DF8CD
:100D400008FB00BF4DF808EDFFF7C4FF34BF0120DA
:100D500000205DF808FB00BF7BB972B90029BEBF57
:100D600000204FF0004106E008BF00281CBF6FF0D4
:100D700000414FF0FF3000F0C9B9ADF1080C6DE94A
:100D800004CE002909DB002B1ADB00F04DF8DDF85A
:100D900004E0DDE9022304B07047404261EB410109
:100DA000002B1BDB00F040F8DDF804E0DDE9022356
:100DB00004B0404261EB4101524263EB4303704790
:100DC000524263EB430300F02FF8DDF804E0DDE965
:100DD000022304B0404261EB41017047524263EB91
:100DE000430300F021F8DDF804E0DDE9022304B05C
:100DF000524263EB4303704753B94AB9002908BF15
:100E000000281CBF4FF0FF314FF0FF3000F07EB9DB
:100E1000ADF1080C6DE904CE00F006F8DDF804E051
:100E2000DDE9022304B070472DE9F0478C460E46F9
:100E30000446089D002B50D18A4217466CD9B2FA5D
:100E400082FEBEF1000F0BD0CEF1200420FA04F494
:100E500001FA0EF644EA060C02FA0EF700FA0EF456
:100E60004FEA1749220CBCFBF9F01FFA87F809FB7F
:100E700010C642EA064600FB08F3B34209D9F61948
:100E800000F1FF3280F02281B34240F21F8102382C
:100E90003E44F61AA2B2B6FBF9F309FB136642EA26
:100EA000064403FB08F8A04509D9E41903F1FF3211
:100EB00080F00A81A04540F20781023B3C44C8EB28
:100EC000040443EA00400021002D62D024FA0EF40D
:100ED00000232C606B60BDE8F0878B4207D9002DA2
:100EE00055D0002185E841000846BDE8F087B3FAF7
:100EF00083F1002940F09080B34202D3824200F295
:100F0000F880841A66EB03060120B446002D40D019
:100F100085E81010BDE8F08712B90127B7FBF2F79A
:100F2000B7FA87FEBEF1000F35D1F31B4FEA174821
:100F30001FFA87FC0121B3FBF8F0220C08FB1036E6
:100F400042EA06460CFB00F3B34207D9F61900F15A
:100F5000FF3202D2B34200F2CE801046F61AA2B29D
:100F6000B6FBF8F308FB136642EA06440CFB03FCED
:100F7000A44507D9E41903F1FF3202D2A44500F2D7
:100F8000B5801346CCEB040443EA00409CE72946B5
:100F90002846BDE8F087CEF1200106FA0EF307FAE5
:100FA0000EF720FA01F94FEA1748CE4049EA030943
:100FB000B6FBF8FA4FEA194408FB1A661FFA87FCD9
:100FC00044EA06430AFB0CF29A4200FA0EF40AD9EC
:100FD000DB190AF1FF3180F087809A4240F2848069
:100FE000AAF1020A3B449B1A1FFA89F9B3FBF8F1F4
:100FF00008FB113349EA034301FB0CF69E4207D973
:10100000DB1901F1FF326BD29E4269D902393B44B0
:101010009B1B41EA0A418EE7C1F1200E22FA0EF431
:101020008B40234320FA0EF706FA01F44FEA134CE3
:1010300026FA0EF63C43B6FBFCF9270C0CFB1966AE
:101040001FFA83F847EA064609FB08F7B74202FA97
:1010500001F200FA01FA08D9F61809F1FF3041D27D
:10106000B7423FD9A9F102091E44F61BA0B2B6FB54
:10107000FCF40CFB146640EA064704FB08F8B8458C
:1010800007D9FF1804F1FF3028D2B84526D9023C11
:101090001F4444EA0940C8EB0707A0FB02894F45FB
:1010A00044464E4614D329D065B3BAEB040367EB2C
:1010B000060707FA0EFECB40CF404EEA030385E851
:1010C00088000021BDE8F0871346F8E61046E0E608
:1010D000B8EB020469EB03060138E5E70446D8E7FC
:1010E000114695E78146C0E78A467CE7023B3C44CF
:1010F00048E708460AE702383E442FE7C245E7D3EF
:101100003E46D1E72946BDE8F08700BF704700BFE3
:1011100001F0FF01102A2BDB10F0070F08D010F8A8
:10112000013B013A8B422DD010F0070F42B3F6D1AC
:10113000F0B441EA012141EA014122F007047FF0C5
:1011400000070023F0E80256083C85EA010586EA1C
:10115000010685FA47F5A3FA87F586FA47F6A5FA58
:1011600087F68EB9EED1F0BC01F0FF0102F0070264
:1011700032B110F8013B013A83EA010313B1F8D10F
:101180000020704701387047002D06BF35460338F0
:10119000073815F0010F07D1013015F4807F02BF29
:1011A000013015F4C03F0130F0BC0138704700BF7A
:1011B00010F8012B11F8013B012A28BF9A42F7D001
:1011C000D01A7047034613F8012B002AFBD1181AD6
:1011D000013870474FEA410C7FEA6C5C02D150EA5B
:1011E000013C0AD14FEA430C7FEA6C5C02D152EA1F
:1011F000033C02D14FF0000070474FF001007047F0
:101200004FEA410212F5001215D211D56FF478732E
:10121000B3EB625212D94FEAC12343F0004343EAD1
:10122000505311F0004F23FA02F018BF40427047AC
:101230004FF00000704750EA013005D111F0004036
:1012400008BF6FF0004070474FF00000704700BFCC
:101250004A0011D212F5001211D20DD56FF4787335
:10126000B3EB62520ED44FEAC12343F0004343EA8A
:10127000505323FA02F070474FF00000704750EAD5
:10128000013002D14FF0FF3070474FF0000070473F
:101290004FEA4102B2F1E04324BFB3F5001CDCF198
:1012A000FE5C0DD901F0004C4FEAC0024CEA5070D0
:1012B000B2F1004F40EB830008BF20F001007047FF
:1012C00011F0804F21D113F13872BCBF01F0004002
:1012D000704741F480114FEA5252C2F11802C2F134
:1012E000200C10FA0CF320FA02F018BF40F00100B5
:1012F0004FEAC1234FEAD32303FA0CFC40EA0C0067
:1013000023FA02F34FEA4303CCE77FEA625307D1A3
:1013100050EA01331EBF4FF0FE4040F440007047DA
:1013200001F0004040F0FE4040F40000704700BF74
:101330000020704700487047C806FF1F00487047EC
:10134000D106FF1F00487047D006FF1F00487047B6
:10135000CE06FF1F00487047C906FF1F00487047B0
:10136000CD06FF1F00487047CF06FF1F014B0360EB
:10137000704700BF64830500014B0360704700BFE6
:1013800064830500014B0360704700BF6483050060
:10139000014B0360704700BF64830500014B03608D
:1013A000704700BF64830500014B0360704700BFB6
:1013B00064830500014B0360704700BF6483050030
:1013C000014B0360704700BF64830500014B03605D
:1013D000704700BF64830500014B0360704700BF86
:1013E00064830500014B0360704700BF6483050000
:1013F000014B0360704700BF64830500014B03602D
:10140000704700BF64830500014B0360704700BF55
:1014100064830500014B0360704700BF64830500CF
:10142000014B0360704700BF64830500014B0360FC
:10143000704700BF64830500014B0360704700BF25
:1014400064830500014B0360704700BF648305009F
:10145000014B0360704700BF64830500014B0360CC
:10146000704700BF64830500014B0360704700BFF5
:1014700064830500014B0360704700BF648305006F
:10148000014B0360704700BF64830500014B03609C
:10149000704700BF64830500014B0360704700BFC5
:1014A00064830500014B0360704700BF648305003F
:1014B000014B0360704700BF64830500014B03606C
:1014C000704700BF64830500014B0360704700BF95
:1014D00064830500014B0360704700BF648305000F
:1014E000014B0360704700BF64830500014B03603C
:1014F000704700BF64830500014B0360704700BF65
:1015000064830500014B0360704700BF64830500DE
:10151000014B0360704700BF64830500014B03600B
:10152000704700BF64830500014B0360704700BF34
:1015300064830500014B0360704700BF64830500AE
:10154000014B0360704700BF64830500014B0360DB
:10155000704700BF64830500014B0360704700BF04
:1015600064830500014B0360704700BF648305007E
:10157000014B0360704700BF64830500014B0360AB
:10158000704700BF64830500014B0360704700BFD4
:1015900064830500014B0360704700BF648305004E
:1015A000014B0360704700BF64830500014B03607B
:1015B000704700BF64830500014B0360704700BFA4
:1015C00064830500014B0360704700BF648305001E
:1015D000014B0360704700BF64830500014B03604B
:1015E000704700BF64830500014B0360704700BF74
:1015F00064830500014B0360704700BF64830500EE
:10160000014B0360704700BF64830500014B03601A
:10161000704700BF64830500014B0360704700BF43
:1016200064830500014B0360704700BF64830500BD
:10163000014B0360704700BF64830500014B0360EA
:10164000704700BF64830500014B0360704700BF13
:1016500064830500014B0360704700BF648305008D
:10166000014B0360704700BF64830500014B0360BA
:10167000704700BF64830500014B0360704700BFE3
:1016800064830500014B0360704700BF648305005D
:10169000014B0360704700BF64830500014B03608A
:1016A000704700BF64830500014B0360704700BFB3
:1016B00064830500014B0360704700BF648305002D
:1016C000014B0360704700BF64830500014B03605A
:1016D000704700BF64830500014B0360704700BF83
:1016E00064830500014B0360704700BF64830500FD
:1016F000014B0360704700BF64830500014B03602A
:10170000704700BF64830500014B0360704700BF52
:1017100064830500014B0360704700BF64830500CC
:10172000014B0360704700BF64830500014B0360F9
:10173000704700BF64830500014B0360704700BF22
:1017400064830500014B0360704700BF648305009C
:10175000014B0360704700BF64830500014B0360C9
:10176000704700BF64830500014B0360704700BFF2
:1017700064830500014B0360704700BF648305006C
:10178000014B0360704700BF64830500014B036099
:10179000704700BF64830500014B0360704700BFC2
:1017A00064830500014B0360704700BF648305003C
:1017B000014B0360704700BF64830500014B036069
:1017C000704700BF64830500014B0360704700BF92
:1017D00064830500014B0360704700BF648305000C
:1017E000014B0360704700BF64830500014B036039
:1017F000704700BF64830500014B0360704700BF62
:1018000064830500014B0360704700BF64830500DB
:10181000014B0360704700BF64830500014B036008
:10182000704700BF64830500014B0360704700BF31
:1018300064830500014B0360704700BF64830500AB
:10184000014B0360704700BF64830500014B0360D8
:10185000704700BF64830500014B0360704700BF01
:1018600064830500014B0360704700BF648305007B
:10187000014B0360704700BF64830500014B0360A8
:10188000704700BF64830500014B0360704700BFD1
:1018900064830500014B0360704700BF648305004B
:1018A000014B0360704700BF64830500014B036078
:1018B000704700BF64830500014B0360704700BFA1
:1018C00064830500014B0360704700BF648305001B
:1018D000014B0360704700BF64830500014B036048
:1018E000704700BF64830500014B0360704700BF71
:1018F00064830500014B0360704700BF64830500EB
:10190000014B0360704700BF64830500014B036017
:10191000704700BF64830500014B0360704700BF40
:1019200064830500014B0360704700BF64830500BA
:10193000014B0360704700BF64830500014B0360E7
:10194000704700BF64830500014B0360704700BF10
:1019500064830500014B0360704700BF648305008A
:10196000014B0360704700BF64830500014B0360B7
:10197000704700BF64830500014B0360704700BFE0
:1019800064830500014B0360704700BF648305005A
:10199000014B0360704700BF64830500014B036087
:1019A000704700BF64830500014B0360704700BFB0
:1019B00064830500014B0360704700BF648305002A
:1019C000014B0360704700BF64830500014B036057
:1019D000704700BF64830500014B0360704700BF80
:1019E00064830500014B0360704700BF64830500FA
:1019F000014B0360704700BF6483050010B50446C7
:101A0000024B036034F01FFC204610BD64830500C8
:101A100010B50446024B036034F015FC204610BD9F
:101A20006483050010B50446024B036034F00BFCE0
:101A3000204610BD6483050010B50446024B0360C8
:101A400034F001FC204610BD6483050010B5044647
:101A5000024B036034F0F7FB204610BD64830500A1
:101A600010B50446024B036034F0EDFB204610BD78
:101A70006483050010B50446024B036034F0E3FBB9
:101A8000204610BD6483050010B50446024B036078
:101A900034F0D9FB204610BD6483050010B5044620
:101AA000024B036034F0CFFB204610BD6483050079
:101AB00010B50446024B036034F0C5FB204610BD50
:101AC0006483050010B50446024B036034F0BBFB91
:101AD000204610BD6483050010B50446024B036028
:101AE00034F0B1FB204610BD6483050010B50446F8
:101AF000024B036034F0A7FB204610BD6483050051
:101B000010B50446024B036034F09DFB204610BD27
:101B10006483050010B50446024B036034F093FB68
:101B2000204610BD6483050010B50446024B0360D7
:101B300034F089FB204610BD6483050010B50446CF
:101B4000024B036034F07FFB204610BD6483050028
:101B500010B50446024B036034F075FB204610BDFF
:101B60006483050010B50446024B036034F06BFB40
:101B7000204610BD6483050010B50446024B036087
:101B800034F061FB204610BD6483050010B50446A7
:101B9000024B036034F057FB204610BD6483050000
:101BA00010B50446024B036034F04DFB204610BDD7
:101BB0006483050010B50446024B036034F043FB18
:101BC000204610BD6483050010B50446024B036037
:101BD00034F039FB204610BD6483050010B504467F
:101BE000024B036034F02FFB204610BD64830500D8
:101BF00010B50446024B036034F025FB204610BDAF
:101C00006483050010B50446024B036034F01BFBEF
:101C1000204610BD6483050010B50446024B0360E6
:101C200034F011FB204610BD6483050010B5044656
:101C3000024B036034F007FB204610BD64830500AF
:101C400010B50446024B036034F0FDFA204610BD87
:101C50006483050010B50446024B036034F0F3FAC8
:101C6000204610BD6483050010B50446024B036096
:101C700034F0E9FA204610BD6483050010B504462F
:101C8000024B036034F0DFFA204610BD6483050088
:101C900010B50446024B036034F0D5FA204610BD5F
:101CA0006483050010B50446024B036034F0CBFAA0
:101CB000204610BD6483050010B50446024B036046
:101CC00034F0C1FA204610BD6483050010B5044607
:101CD000024B036034F0B7FA204610BD6483050060
:101CE00010B50446024B036034F0ADFA204610BD37
:101CF0006483050010B50446024B036034F0A3FA78
:101D0000204610BD6483050010B50446024B0360F5
:101D100034F099FA204610BD6483050010B50446DE
:101D2000024B036034F08FFA204610BD6483050037
:101D300010B50446024B036034F085FA204610BD0E
:101D40006483050010B50446024B036034F07BFA4F
:101D5000204610BD6483050010B50446024B0360A5
:101D600034F071FA204610BD6483050010B50446B6
:101D7000024B036034F067FA204610BD648305000F
:101D800010B50446024B036034F05DFA204610BDE6
:101D90006483050010B50446024B036034F053FA27
:101DA000204610BD6483050010B50446024B036055
:101DB00034F049FA204610BD6483050010B504468E
:101DC000024B036034F03FFA204610BD64830500E7
:101DD00010B50446024B036034F035FA204610BDBE
:101DE0006483050010B50446024B036034F02BFAFF
:101DF000204610BD6483050010B50446024B036005
:101E000034F021FA204610BD6483050010B5044665
:101E1000024B036034F017FA204610BD64830500BE
:101E200010B50446024B036034F00DFA204610BD95
:101E30006483050010B50446024B036034F003FAD6
:101E4000204610BD6483050010B50446024B0360B4
:101E500034F0F9F9204610BD6483050010B504463E
:101E6000024B036034F0EFF9204610BD6483050097
:101E700010B50446024B036034F0E5F9204610BD6E
:101E80006483050010B50446024B036034F0DBF9AF
:101E9000204610BD6483050010B50446024B036064
:101EA00034F0D1F9204610BD6483050010B5044616
:101EB000024B036034F0C7F9204610BD648305006F
:101EC00010B50446024B036034F0BDF9204610BD46
:101ED0006483050010B50446024B036034F0B3F987
:101EE000204610BD6483050010B50446024B036014
:101EF00034F0A9F9204610BD6483050010B50446EE
:101F0000024B036034F09FF9204610BD6483050046
:101F100010B50446024B036034F095F9204610BD1D
:101F20006483050010B50446024B036034F08BF95E
:101F3000204610BD6483050010B50446024B0360C3
:101F400034F081F9204610BD6483050010B50446C5
:101F5000024B036034F077F9204610BD648305001E
:101F600010B50446024B036034F06DF9204610BDF5
:101F70006483050010B50446024B036034F063F936
:101F8000204610BD6483050010B50446024B036073
:101F900034F059F9204610BD6483050010B504469D
:101FA000024B036034F04FF9204610BD64830500F6
:101FB00010B50446024B036034F045F9204610BDCD
:101FC0006483050010B50446024B036034F03BF90E
:101FD000204610BD6483050010B50446024B036023
:101FE00034F031F9204610BD6483050010B5044675
:101FF000024B036034F027F9204610BD64830500CE
:1020000010B50446024B036034F01DF9204610BDA4
:102010006483050010B50446024B036034F013F9E5
:10202000204610BD6483050010B50446024B0360D2
:1020300034F009F9204610BD6483050010B504464C
:10204000024B036034F0FFF8204610BD64830500A6
:1020500010B50446024B036034F0F5F8204610BD7D
:102060006483050010B50446024B036034F0EBF8BE
:10207000204610BD6483050010B50446024B036082
:1020800034F0E1F8204610BD6483050010B5044625
:10209000024B036034F0D7F8204610BD648305007E
:1020A00010B50446024B036034F0CDF8204610BD55
:1020B0006483050010B50446024B036034F0C3F896
:1020C000204610BD6483050010B50446024B036032
:1020D00034F0B9F8204610BD6483050010B50446FD
:1020E000024B036034F0AFF8204610BD6483050056
:1020F00010B50446024B036034F0A5F8204610BD2D
:102100006483050010B50446024B036034F09BF86D
:10211000204610BD6483050010B50446024B0360E1
:1021200034F091F8204610BD6483050010B50446D4
:10213000024B036034F087F8204610BD648305002D
:1021400010B50446024B036034F07DF8204610BD04
:102150006483050010B50446024B036034F073F845
:10216000204610BD6483050010B50446024B036091
:1021700034F069F8204610BD6483050010B50446AC
:10218000024B036034F05FF8204610BD6483050005
:1021900010B50446024B036034F055F8204610BDDC
:1021A0006483050010B50446024B036034F04BF81D
:1021B000204610BD6483050010B50446024B036041
:1021C00034F041F8204610BD6483050010B5044684
:1021D000024B036034F037F8204610BD64830500DD
:1021E00010B50446024B036034F02DF8204610BDB4
:1021F0006483050010B50446024B036034F023F8F5
:10220000204610BD6483050010B50446024B0360F0
:1022100034F019F8204610BD6483050010B504465B
:10222000024B036034F00FF8204610BD64830500B4
:1022300010B50446024B036034F005F8204610BD8B
:102240006483050010B50446024B036033F0FBFFC6
:10225000204610BD6483050010B50446024B0360A0
:1022600033F0F1FF204610BD6483050010B504462D
:10227000024B036033F0E7FF204610BD6483050086
:1022800010B50446024B036033F0DDFF204610BD5D
:102290006483050010B50446024B036033F0D3FF9E
:1022A000204610BD6483050010B50446024B036050
:1022B00033F0C9FF204610BD6483050010B5044605
:1022C000024B036033F0BFFF204610BD648305005E
:1022D00010B50446024B036033F0B5FF204610BD35
:1022E0006483050010B50446024B036033F0ABFF76
:1022F000204610BD6483050010B50446024B036000
:1023000033F0A1FF204610BD6483050010B50446DC
:10231000024B036033F097FF204610BD6483050035
:1023200010B50446024B036033F08DFF204610BD0C
:102330006483050010B50446024B036033F083FF4D
:10234000204610BD6483050010B50446024B0360AF
:1023500033F079FF204610BD6483050010B50446B4
:10236000024B036033F06FFF204610BD648305000D
:1023700010B50446024B036033F065FF204610BDE4
:102380006483050010B50446024B036033F05BFF25
:10239000204610BD6483050010B50446024B03605F
:1023A00033F051FF204610BD6483050010B504468C
:1023B000024B036033F047FF204610BD64830500E5
:1023C00010B50446024B036033F03DFF204610BDBC
:1023D0006483050010B50446024B036033F033FFFD
:1023E000204610BD6483050010B50446024B03600F
:1023F00033F029FF204610BD6483050010B5044664
:10240000024B036033F01FFF204610BD64830500BC
:1024100010B50446024B036033F015FF204610BD93
:102420006483050010B50446024B036033F00BFFD4
:10243000204610BD6483050010B50446024B0360BE
:1024400033F001FF204610BD6483050010B504463B
:10245000024B036033F0F7FE204610BD6483050095
:1024600010B50446024B036033F0EDFE204610BD6C
:102470006483050010B50446024B036033F0E3FEAD
:10248000204610BD6483050010B50446024B03606E
:1024900033F0D9FE204610BD6483050010B5044614
:1024A000024B036033F0CFFE204610BD648305006D
:1024B00010B50446024B036033F0C5FE204610BD44
:1024C0006483050010B50446024B036033F0BBFE85
:1024D000204610BD6483050010B50446024B03601E
:1024E00033F0B1FE204610BD6483050010B50446EC
:1024F000024B036029F080FC204610BDF8860500E1
:1025000010B50446044B036029F076FC204633F0F6
:102510009AFE204610BD00BFF886050010B504469F
:10252000024B036029F068FC204610BDF8860500C8
:1025300010B50446044B036029F05EFC204633F0DE
:1025400082FE204610BD00BFF886050010B5044687
:10255000024B036029F050FC204610BDF8860500B0
:1025600010B50446044B036029F046FC204633F0C6
:102570006AFE204610BD00BFF886050010B504466F
:10258000024B036029F038FC204610BDF886050098
:1025900010B50446044B036029F02EFC204633F0AE
:1025A00052FE204610BD00BFF886050010B5044657
:1025B000024B036029F020FC204610BDF886050080
:1025C00010B50446044B036029F016FC204633F096
:1025D0003AFE204610BD00BFF886050010B504463F
:1025E000024B036029F008FC204610BDF886050068
:1025F00010B50446044B036029F0FEFB204633F07F
:1026000022FE204610BD00BFF886050010B5044626
:10261000024B036029F0F0FB204610BDF886050050
:1026200010B50446044B036029F0E6FB204633F066
:102630000AFE204610BD00BFF886050010B504460E
:10264000024B036029F0D8FB204610BDF886050038
:1026500010B50446044B036029F0CEFB204633F04E
:10266000F2FD204610BD00BFF886050010B50446F7
:10267000024B036029F0C0FB204610BDF886050020
:1026800010B50446044B036029F0B6FB204633F036
:10269000DAFD204610BD00BFF886050010B50446DF
:1026A000024B036029F0A8FB204610BDF886050008
:1026B00010B50446044B036029F09EFB204633F01E
:1026C000C2FD204610BD00BFF886050010B50446C7
:1026D000024B036029F090FB204610BDF8860500F0
:1026E00010B50446044B036029F086FB204633F006
:1026F000AAFD204610BD00BFF886050010B50446AF
:10270000024B036029F078FB204610BDF8860500D7
:1027100010B50446044B036029F06EFB204633F0ED
:1027200092FD204610BD00BFF886050010B5044696
:10273000024B036029F060FB204610BDF8860500BF
:1027400010B50446044B036029F056FB204633F0D5
:102750007AFD204610BD00BFF886050010B504467E
:10276000024B036029F048FB204610BDF8860500A7
:1027700010B50446044B036029F03EFB204633F0BD
:1027800062FD204610BD00BFF886050010B5044666
:10279000024B036029F030FB204610BDF88605008F
:1027A00010B50446044B036029F026FB204633F0A5
:1027B0004AFD204610BD00BFF886050010B504464E
:1027C000024B036029F018FB204610BDF886050077
:1027D00010B50446044B036029F00EFB204633F08D
:1027E00032FD204610BD00BFF886050010B5044636
:1027F000024B036029F000FB204610BDF88605005F
:1028000010B50446044B036029F0F6FA204633F075
:102810001AFD204610BD00BFF886050010B504461D
:10282000024B036029F0E8FA204610BDF886050047
:1028300010B50446044B036029F0DEFA204633F05D
:1028400002FD204610BD00BFF886050010B5044605
:10285000024B036029F0D0FA204610BDF88605002F
:1028600010B50446044B036029F0C6FA204633F045
:10287000EAFC204610BD00BFF886050010B50446EE
:10288000024B036029F0B8FA204610BDF886050017
:1028900010B50446044B036029F0AEFA204633F02D
:1028A000D2FC204610BD00BFF886050010B50446D6
:1028B000024B036029F0A0FA204610BD48A1050094
:1028C00010B50446044B036029F096FA204633F015
:1028D000BAFC204610BD00BF48A1050010B5044653
:1028E000024B036029F088FA204610BD48A105007C
:1028F00010B50446044B036029F07EFA204633F0FD
:10290000A2FC204610BD00BF48A1050010B504463A
:10291000024B036029F070FA204610BD48A1050063
:1029200010B50446044B036029F066FA204633F0E4
:102930008AFC204610BD00BF48A1050010B5044622
:10294000024B036029F058FA204610BD48A105004B
:1029500010B50446044B036029F04EFA204633F0CC
:1029600072FC204610BD00BF48A1050010B504460A
:10297000024B036029F040FA204610BD48A1050033
:1029800010B50446044B036029F036FA204633F0B4
:102990005AFC204610BD00BF48A1050010B50446F2
:1029A000024B036029F028FA204610BD48A105001B
:1029B00010B50446044B036029F01EFA204633F09C
:1029C00042FC204610BD00BF48A1050010B50446DA
:1029D000024B036029F010FA204610BD48A1050003
:1029E00010B50446044B036029F006FA204633F084
:1029F0002AFC204610BD00BF48A1050010B50446C2
:102A0000024B036029F0F8F9204610BD48A10500EB
:102A100010B50446044B036029F0EEF9204633F06C
:102A200012FC204610BD00BF48A1050010B50446A9
:102A3000024B036029F0E0F9204610BD48A10500D3
:102A400010B50446044B036029F0D6F9204633F054
:102A5000FAFB204610BD00BF48A1050010B5044692
:102A6000024B036029F0C8F9204610BD48A10500BB
:102A700010B50446044B036029F0BEF9204633F03C
:102A8000E2FB204610BD00BF48A1050010B504467A
:102A9000024B036029F0B0F9204610BD48A10500A3
:102AA00010B50446044B036029F0A6F9204633F024
:102AB000CAFB204610BD00BF48A1050010B5044662
:102AC000024B036029F098F9204610BD48A105008B
:102AD00010B50446044B036029F08EF9204633F00C
:102AE000B2FB204610BD00BF48A1050010B504464A
:102AF000024B036029F080F9204610BD48A1050073
:102B000010B50446044B036029F076F9204633F0F3
:102B10009AFB204610BD00BF48A1050010B5044631
:102B2000024B036029F068F9204610BD48A105005A
:102B300010B50446044B036029F05EF9204633F0DB
:102B400082FB204610BD00BF48A1050010B5044619
:102B5000024B036029F050F9204610BD48A1050042
:102B600010B50446044B036029F046F9204633F0C3
:102B70006AFB204610BD00BF48A1050010B5044601
:102B8000024B036029F038F9204610BD48A105002A
:102B900010B50446044B036029F02EF9204633F0AB
:102BA00052FB204610BD00BF48A1050010B50446E9
:102BB000024B036029F020F9204610BD48A1050012
:102BC00010B50446044B036029F016F9204633F093
:102BD0003AFB204610BD00BF48A1050010B50446D1
:102BE000024B036029F008F9204610BD48A10500FA
:102BF00010B50446044B036029F0FEF8204633F07C
:102C000022FB204610BD00BF48A1050010B50446B8
:102C1000024B036029F0F0F8204610BD48A10500E2
:102C200010B50446044B036029F0E6F8204633F063
:102C30000AFB204610BD00BF48A1050010B50446A0
:102C4000024B036029F0D8F8204610BD48A10500CA
:102C500010B50446044B036029F0CEF8204633F04B
:102C6000F2FA204610BD00BF48A1050010B5044689
:102C7000024B036029F0C0F8204610BD40870500D4
:102C800010B50446044B036029F0B6F8204633F033
:102C9000DAFA204610BD00BF4087050010B5044693
:102CA000024B036029F0A8F8204610BD40870500BC
:102CB00010B50446044B036029F09EF8204633F01B
:102CC000C2FA204610BD00BF4087050010B504467B
:102CD000024B036029F090F8204610BD40870500A4
:102CE00010B50446044B036029F086F8204633F003
:102CF000AAFA204610BD00BF4087050010B5044663
:102D0000024B036029F078F8204610BD408705008B
:102D100010B50446044B036029F06EF8204633F0EA
:102D200092FA204610BD00BF4087050010B504464A
:102D3000024B036029F060F8204610BD4087050073
:102D400010B50446044B036029F056F8204633F0D2
:102D50007AFA204610BD00BF4087050010B5044632
:102D6000024B036029F048F8204610BD408705005B
:102D700010B50446044B036029F03EF8204633F0BA
:102D800062FA204610BD00BF4087050010B504461A
:102D9000024B036029F030F8204610BD4087050043
:102DA00010B50446044B036029F026F8204633F0A2
:102DB0004AFA204610BD00BF4087050010B5044602
:102DC000024B036029F018F8204610BD408705002B
:102DD00010B50446044B036029F00EF8204633F08A
:102DE00032FA204610BD00BF4087050010B50446EA
:102DF000024B036029F000F8204610BD4087050013
:102E000010B50446044B036028F0F6FF204633F06B
:102E10001AFA204610BD00BF4087050010B50446D1
:102E2000024B036028F0E8FF204610BD40870500F4
:102E300010B50446044B036028F0DEFF204633F053
:102E400002FA204610BD00BF4087050010B50446B9
:102E5000024B036028F0D0FF204610BD40870500DC
:102E600010B50446044B036028F0C6FF204633F03B
:102E7000EAF9204610BD00BF4087050010B50446A2
:102E8000024B036028F0B8FF204610BD40870500C4
:102E900010B50446044B036028F0AEFF204633F023
:102EA000D2F9204610BD00BF4087050010B504468A
:102EB000024B036028F0A0FF204610BD40870500AC
:102EC00010B50446044B036028F096FF204633F00B
:102ED000BAF9204610BD00BF4087050010B5044672
:102EE000024B036028F088FF204610BD4087050094
:102EF00010B50446044B036028F07EFF204633F0F3
:102F0000A2F9204610BD00BF4087050010B5044659
:102F1000024B036028F070FF204610BD408705007B
:102F200010B50446044B036028F066FF204633F0DA
:102F30008AF9204610BD00BF4087050010B5044641
:102F4000024B036028F058FF204610BD4087050063
:102F500010B50446044B036028F04EFF204633F0C2
:102F600072F9204610BD00BF4087050010B5044629
:102F7000024B036028F040FF204610BD408705004B
:102F800010B50446044B036028F036FF204633F0AA
:102F90005AF9204610BD00BF4087050010B5044611
:102FA000024B036028F028FF204610BD4087050033
:102FB00010B50446044B036028F01EFF204633F092
:102FC00042F9204610BD00BF4087050010B50446F9
:102FD000024B036028F010FF204610BD408705001B
:102FE00010B50446044B036028F006FF204633F07A
:102FF0002AF9204610BD00BF4087050010B50446E1
:10300000024B036028F0F8FE204610BD4087050003
:1030100010B50446044B036028F0EEFE204633F062
:1030200012F9204610BD00BF4087050010B50446C8
:10303000024B036028F0E0FE204610BD74870500B7
:1030400010B50446044B036028F0D6FE204633F04A
:10305000FAF8204610BD00BF7487050010B504467D
:10306000024B036028F0C8FE204610BD748705009F
:1030700010B50446044B036028F0BEFE204633F032
:10308000E2F8204610BD00BF7487050010B5044665
:10309000024B036028F0B0FE204610BD7487050087
:1030A00010B50446044B036028F0A6FE204633F01A
:1030B000CAF8204610BD00BF7487050010B504464D
:1030C000024B036028F098FE204610BD748705006F
:1030D00010B50446044B036028F08EFE204633F002
:1030E000B2F8204610BD00BF7487050010B5044635
:1030F000024B036028F080FE204610BD7487050057
:1031000010B50446044B036028F076FE204633F0E9
:103110009AF8204610BD00BF7487050010B504461C
:10312000024B036028F068FE204610BD748705003E
:1031300010B50446044B036028F05EFE204633F0D1
:1031400082F8204610BD00BF7487050010B5044604
:10315000024B036028F050FE204610BD7487050026
:1031600010B50446044B036028F046FE204633F0B9
:103170006AF8204610BD00BF7487050010B50446EC
:10318000024B036028F038FE204610BD748705000E
:1031900010B50446044B036028F02EFE204633F0A1
:1031A00052F8204610BD00BF7487050010B50446D4
:1031B000024B036028F020FE204610BD74870500F6
:1031C00010B50446044B036028F016FE204633F089
:1031D0003AF8204610BD00BF7487050010B50446BC
:1031E000024B036028F008FE204610BD74870500DE
:1031F00010B50446044B036028F0FEFD204633F072
:1032000022F8204610BD00BF7487050010B50446A3
:10321000024B036028F0F0FD204610BD74870500C6
:1032200010B50446044B036028F0E6FD204633F059
:103230000AF8204610BD00BF7487050010B504468B
:10324000024B036028F0D8FD204610BD74870500AE
:1032500010B50446044B036028F0CEFD204632F042
:10326000F2FF204610BD00BF7487050010B504466C
:10327000024B036028F0C0FD204610BD7487050096
:1032800010B50446044B036028F0B6FD204632F02A
:10329000DAFF204610BD00BF7487050010B5044654
:1032A000024B036028F0A8FD204610BD748705007E
:1032B00010B50446044B036028F09EFD204632F012
:1032C000C2FF204610BD00BF7487050010B504463C
:1032D000024B036028F090FD204610BD7487050066
:1032E00010B50446044B036028F086FD204632F0FA
:1032F000AAFF204610BD00BF7487050010B5044624
:10330000024B036028F078FD204610BD748705004D
:1033100010B50446044B036028F06EFD204632F0E1
:1033200092FF204610BD00BF7487050010B504460B
:10333000024B036028F060FD204610BD7487050035
:1033400010B50446044B036028F056FD204632F0C9
:103350007AFF204610BD00BF7487050010B50446F3
:10336000024B036028F048FD204610BD748705001D
:1033700010B50446044B036028F03EFD204632F0B1
:1033800062FF204610BD00BF7487050010B50446DB
:10339000024B036028F030FD204610BD7487050005
:1033A00010B50446044B036028F026FD204632F099
:1033B0004AFF204610BD00BF7487050010B50446C3
:1033C000024B036028F018FD204610BD74870500ED
:1033D00010B50446044B036028F00EFD204632F081
:1033E00032FF204610BD00BF7487050010B50446AB
:1033F000024B036028F000FD204610BDE49205005A
:1034000010B50446044B036028F0F6FC204632F069
:103410001AFF204610BD00BFE492050010B5044617
:10342000024B036028F0E8FC204610BDE492050042
:1034300010B50446044B036028F0DEFC204632F051
:1034400002FF204610BD00BFE492050010B50446FF
:10345000024B036028F0D0FC204610BDE49205002A
:1034600010B50446044B036028F0C6FC204632F039
:10347000EAFE204610BD00BFE492050010B50446E8
:10348000024B036028F0B8FC204610BDE492050012
:1034900010B50446044B036028F0AEFC204632F021
:1034A000D2FE204610BD00BFE492050010B50446D0
:1034B000024B036028F0A0FC204610BDE4920500FA
:1034C00010B50446044B036028F096FC204632F009
:1034D000BAFE204610BD00BFE492050010B50446B8
:1034E000024B036028F088FC204610BDE4920500E2
:1034F00010B50446044B036028F07EFC204632F0F1
:10350000A2FE204610BD00BFE492050010B504469F
:10351000024B036028F070FC204610BDE4920500C9
:1035200010B50446044B036028F066FC204632F0D8
:103530008AFE204610BD00BFE492050010B5044687
:10354000024B036028F058FC204610BDE4920500B1
:1035500010B50446044B036028F04EFC204632F0C0
:1035600072FE204610BD00BFE492050010B504466F
:10357000024B036028F040FC204610BDE492050099
:1035800010B50446044B036028F036FC204632F0A8
:103590005AFE204610BD00BFE492050010B5044657
:1035A000024B036028F028FC204610BDE492050081
:1035B00010B50446044B036028F01EFC204632F090
:1035C00042FE204610BD00BFE492050010B504463F
:1035D000024B036028F010FC204610BDE492050069
:1035E00010B50446044B036028F006FC204632F078
:1035F0002AFE204610BD00BFE492050010B5044627
:10360000024B036028F0F8FB204610BDE492050051
:1036100010B50446044B036028F0EEFB204632F060
:1036200012FE204610BD00BFE492050010B504460E
:10363000024B036028F0E0FB204610BDE492050039
:1036400010B50446044B036028F0D6FB204632F048
:10365000FAFD204610BD00BFE492050010B50446F7
:10366000024B036028F0C8FB204610BDE492050021
:1036700010B50446044B036028F0BEFB204632F030
:10368000E2FD204610BD00BFE492050010B50446DF
:10369000024B036028F0B0FB204610BDE492050009
:1036A00010B50446044B036028F0A6FB204632F018
:1036B000CAFD204610BD00BFE492050010B50446C7
:1036C000024B036028F098FB204610BDE4920500F1
:1036D00010B50446044B036028F08EFB204632F000
:1036E000B2FD204610BD00BFE492050010B50446AF
:1036F000024B036028F080FB204610BDE4920500D9
:1037000010B50446044B036028F076FB204632F0E7
:103710009AFD204610BD00BFE492050010B5044696
:10372000024B036028F068FB204610BDE4920500C0
:1037300010B50446044B036028F05EFB204632F0CF
:1037400082FD204610BD00BFE492050010B504467E
:10375000024B036028F050FB204610BDE4920500A8
:1037600010B50446044B036028F046FB204632F0B7
:103770006AFD204610BD00BFE492050010B5044666
:10378000024B036028F038FB204610BDE492050090
:1037900010B50446044B036028F02EFB204632F09F
:1037A00052FD204610BD00BFE492050010B504464E
:1037B000024B036028F020FB204610BD20A5050029
:1037C00010B50446044B036028F016FB204632F087
:1037D0003AFD204610BD00BF20A5050010B50446E7
:1037E000024B036028F008FB204610BD20A5050011
:1037F00010B50446044B036028F0FEFA204632F070
:1038000022FD204610BD00BF20A5050010B50446CE
:10381000024B036028F0F0FA204610BD20A50500F9
:1038200010B50446044B036028F0E6FA204632F057
:103830000AFD204610BD00BF20A5050010B50446B6
:10384000024B036028F0D8FA204610BD20A50500E1
:1038500010B50446044B036028F0CEFA204632F03F
:10386000F2FC204610BD00BF20A5050010B504469F
:10387000024B036028F0C0FA204610BD20A50500C9
:1038800010B50446044B036028F0B6FA204632F027
:10389000DAFC204610BD00BF20A5050010B5044687
:1038A000024B036028F0A8FA204610BD20A50500B1
:1038B00010B50446044B036028F09EFA204632F00F
:1038C000C2FC204610BD00BF20A5050010B504466F
:1038D000024B036028F090FA204610BD20A5050099
:1038E00010B50446044B036028F086FA204632F0F7
:1038F000AAFC204610BD00BF20A5050010B5044657
:10390000024B036028F078FA204610BD20A5050080
:1039100010B50446044B036028F06EFA204632F0DE
:1039200092FC204610BD00BF20A5050010B504463E
:10393000024B036028F060FA204610BD20A5050068
:1039400010B50446044B036028F056FA204632F0C6
:103950007AFC204610BD00BF20A5050010B5044626
:10396000024B036028F048FA204610BD20A5050050
:1039700010B50446044B036028F03EFA204632F0AE
:1039800062FC204610BD00BF20A5050010B504460E
:10399000024B036028F030FA204610BD20A5050038
:1039A00010B50446044B036028F026FA204632F096
:1039B0004AFC204610BD00BF20A5050010B50446F6
:1039C000024B036028F018FA204610BD20A5050020
:1039D00010B50446044B036028F00EFA204632F07E
:1039E00032FC204610BD00BF20A5050010B50446DE
:1039F000024B036028F000FA204610BD20A5050008
:103A000010B50446044B036028F0F6F9204632F066
:103A10001AFC204610BD00BF20A5050010B50446C5
:103A2000024B036028F0E8F9204610BD20A50500F0
:103A300010B50446044B036028F0DEF9204632F04E
:103A400002FC204610BD00BF20A5050010B50446AD
:103A5000024B036028F0D0F9204610BD20A50500D8
:103A600010B50446044B036028F0C6F9204632F036
:103A7000EAFB204610BD00BF20A5050010B5044696
:103A8000024B036028F0B8F9204610BD20A50500C0
:103A900010B50446044B036028F0AEF9204632F01E
:103AA000D2FB204610BD00BF20A5050010B504467E
:103AB000024B036028F0A0F9204610BD20A50500A8
:103AC00010B50446044B036028F096F9204632F006
:103AD000BAFB204610BD00BF20A5050010B5044666
:103AE000024B036028F088F9204610BD20A5050090
:103AF00010B50446044B036028F07EF9204632F0EE
:103B0000A2FB204610BD00BF20A5050010B504464D
:103B1000024B036028F070F9204610BD20A5050077
:103B200010B50446044B036028F066F9204632F0D5
:103B30008AFB204610BD00BF20A5050010B5044635
:103B4000024B036028F058F9204610BD20A505005F
:103B500010B50446044B036028F04EF9204632F0BD
:103B600072FB204610BD00BF20A5050010B504461D
:103B7000024B036028F040F9204610BDDC870500A9
:103B800010B50446044B036028F036F9204632F0A5
:103B90005AFB204610BD00BFDC87050010B5044667
:103BA000024B036028F028F9204610BDDC87050091
:103BB00010B50446044B036028F01EF9204632F08D
:103BC00042FB204610BD00BFDC87050010B504464F
:103BD000024B036028F010F9204610BDDC87050079
:103BE00010B50446044B036028F006F9204632F075
:103BF0002AFB204610BD00BFDC87050010B5044637
:103C0000024B036028F0F8F8204610BDDC87050061
:103C100010B50446044B036028F0EEF8204632F05D
:103C200012FB204610BD00BFDC87050010B504461E
:103C3000024B036028F0E0F8204610BDDC87050049
:103C400010B50446044B036028F0D6F8204632F045
:103C5000FAFA204610BD00BFDC87050010B5044607
:103C6000024B036028F0C8F8204610BDDC87050031
:103C700010B50446044B036028F0BEF8204632F02D
:103C8000E2FA204610BD00BFDC87050010B50446EF
:103C9000024B036028F0B0F8204610BDDC87050019
:103CA00010B50446044B036028F0A6F8204632F015
:103CB000CAFA204610BD00BFDC87050010B50446D7
:103CC000024B036028F098F8204610BDDC87050001
:103CD00010B50446044B036028F08EF8204632F0FD
:103CE000B2FA204610BD00BFDC87050010B50446BF
:103CF000024B036028F080F8204610BDDC870500E9
:103D000010B50446044B036028F076F8204632F0E4
:103D10009AFA204610BD00BFDC87050010B50446A6
:103D2000024B036028F068F8204610BDDC870500D0
:103D300010B50446044B036028F05EF8204632F0CC
:103D400082FA204610BD00BFDC87050010B504468E
:103D5000024B036028F050F8204610BDDC870500B8
:103D600010B50446044B036028F046F8204632F0B4
:103D70006AFA204610BD00BFDC87050010B5044676
:103D8000024B036028F038F8204610BDDC870500A0
:103D900010B50446044B036028F02EF8204632F09C
:103DA00052FA204610BD00BFDC87050010B504465E
:103DB000024B036028F020F8204610BDDC87050088
:103DC00010B50446044B036028F016F8204632F084
:103DD0003AFA204610BD00BFDC87050010B5044646
:103DE000024B036028F008F8204610BDDC87050070
:103DF00010B50446044B036027F0FEFF204632F066
:103E000022FA204610BD00BFDC87050010B504462D
:103E1000024B036027F0F0FF204610BDDC87050051
:103E200010B50446044B036027F0E6FF204632F04D
:103E30000AFA204610BD00BFDC87050010B5044615
:103E4000024B036027F0D8FF204610BDDC87050039
:103E500010B50446044B036027F0CEFF204632F035
:103E6000F2F9204610BD00BFDC87050010B50446FE
:103E7000024B036027F0C0FF204610BDDC87050021
:103E800010B50446044B036027F0B6FF204632F01D
:103E9000DAF9204610BD00BFDC87050010B50446E6
:103EA000024B036027F0A8FF204610BDDC87050009
:103EB00010B50446044B036027F09EFF204632F005
:103EC000C2F9204610BD00BFDC87050010B50446CE
:103ED000024B036027F090FF204610BDDC870500F1
:103EE00010B50446044B036027F086FF204632F0ED
:103EF000AAF9204610BD00BFDC87050010B50446B6
:103F0000024B036027F078FF204610BDDC870500D8
:103F100010B50446044B036027F06EFF204632F0D4
:103F200092F9204610BD00BFDC87050010B50820BF
:103F300032F08DF9044627F0B7FE024B236020468D
:103F400010BD00BF9C94050010B5082032F07FF929
:103F5000044627F0A9FE024B2360204610BD00BF97
:103F60005888050010B5082032F071F9044627F092
:103F70009BFE024B2360204610BD00BF6C930500E2
:103F800010B5082032F063F9044627F08DFE024B8D
:103F90002360204610BD00BF68A5050010B50820AD
:103FA00032F055F9044627F07FFE024B236020468D
:103FB00010BD00BF909D050010B5082032F047F9F4
:103FC000044627F071FE024B2360204610BD00BF5F
:103FD0001C9F050010B5082032F039F9044627F07F
:103FE00063FE024B2360204610BD00BF8490050095
:103FF00010B5082032F02BF9044627F055FE024B8D
:104000002360204610BD00BF6097050010B5082052
:1040100032F01DF9044627F047FE024B236020468C
:1040200010BD00BF1494050010B5082032F00FF940
:10403000044627F039FE024B2360204610BD00BF26
:10404000E083050010B5082032F001F9044627F09E
:104050002BFE024B2360204610BD00BF1CA30500B1
:1040600010B5082032F0F3F8044627F01DFE024B8D
:104070002360204610BD00BFF491050010B5082054
:1040800032F0E5F8044627F00FFE024B236020468D
:1040900010BD00BFA884050010B5082032F0D7F885
:1040A000044627F001FE024B2360204610BD00BFEE
:1040B0004899050010B5082032F0C9F8044627F0E9
:1040C000F3FD024B2360204610BD00BF8091050028
:1040D00010B5082032F0BBF8044627F0E5FD024B8E
:1040E0002360204610BD00BF4498050010B508208D
:1040F00032F0ADF8044627F0D7FD024B236020468E
:1041000010BD00BF709D050010B5082032F09FF86B
:10411000044627F0C9FD024B2360204610BD00BFB6
:104120005090050010B5082032F091F8044627F0B1
:10413000BBFD024B2360204610BD00BF249C050040
:1041400010B5082032F083F8044627F0ADFD024B8D
:104150002360204610BD00BF88A5050010B50820CB
:1041600032F075F8044627F09FFD024B236020468D
:1041700010BD00BFD491050010B5082032F067F8DB
:10418000044627F091FD024B2360204610BD00BF7E
:10419000F485050010B5082032F059F8044627F0E0
:1041A00083FD024B2360204610BD00BF0096050032
:1041B00010B5082032F04BF8044627F075FD024B8D
:1041C0002360204610BD00BF6C8F050010B508208D
:1041D00032F03DF8044627F067FD024B236020468D
:1041E00010BD00BFB4A0050010B5082032F02FF8B4
:1041F000044627F059FD024B2360204610BD00BF46
:10420000E095050010B5082032F021F8044627F0AB
:104210004BFD024B2360204610BD00BF8097050078
:1042200010B5082032F013F8044627F03DFD024B8C
:104230002360204610BD00BFBC94050010B50820C7
:1042400032F005F8044627F02FFD024B236020468C
:1042500010BD00BF2C91050010B5082031F0F7FF0C
:10426000044627F021FD024B2360204610BD00BF0D
:1042700034A0050010B5082031F0E9FF044627F00E
:1042800013FD024B2360204610BD00BF00840500D3
:1042900010B5082031F0DBFF044627F005FD024B86
:1042A0002360204610BD00BF2C85050010B50820F6
:1042B00031F0CDFF044627F0F7FC024B2360204687
:1042C00010BD00BFD8A4050010B5082031F0BFFF15
:1042D000044627F0E9FC024B2360204610BD00BFD6
:1042E000B096050010B5082031F0B1FF044627F064
:1042F000DBFC024B2360204610BD00BFEC8E0500A6
:1043000010B5082031F0A3FF044627F0CDFC024B86
:104310002360204610BD00BFA095050010B5082001
:1043200031F095FF044627F0BFFC024B2360204686
:1043300010BD00BF5492050010B5082031F087FF72
:10434000044627F0B1FC024B2360204610BD00BF9D
:104350003888050010B5082031F079FF044627F0B1
:10436000A3FC024B2360204610BD00BF949A0500B9
:1043700010B5082031F06BFF044627F095FC024B86
:104380002360204610BD00BFDCA2050010B5082048
:1043900031F05DFF044627F087FC024B2360204686
:1043A00010BD00BF589C050010B5082031F04FFF2C
:1043B000044627F079FC024B2360204610BD00BF65
:1043C000F493050010B5082031F041FF044627F0B2
:1043D0006BFC024B2360204610BD00BF889B05008C
:1043E00010B5082031F033FF044627F05DFC024B86
:1043F0002360204610BD00BF3492050010B5082090
:1044000031F025FF044627F04FFC024B2360204685
:1044100010BD00BF0C8F050010B5082031F017FF4C
:10442000044627F041FC024B2360204610BD00BF2C
:10443000B485050010B5082031F009FF044627F0C7
:1044400033FC024B2360204610BD00BF6896050078
:1044500010B5082031F0FBFE044627F025FC024B86
:104460002360204610BD00BF1897050010B5082036
:1044700031F0EDFE044627F017FC024B2360204686
:1044800010BD00BF7C99050010B5082031F0DFFE9B
:10449000044627F009FC024B2360204610BD00BFF4
:1044A000C095050010B5082031F0D1FE044627F074
:1044B000FBFB024B2360204610BD00BFD4850500E6
:1044C00010B5082031F0C3FE044627F0EDFB024B87
:1044D0002360204610BD00BF7C94050010B5082065
:1044E00031F0B5FE044627F0DFFB024B2360204687
:1044F00010BD00BFB48F050010B5082031F0A7FE35
:10450000044627F0D1FB024B2360204610BD00BFBC
:10451000409B050010B5082031F099FE044627F0B5
:10452000C3FB024B2360204610BD00BF2CA2050038
:1045300010B5082031F08BFE044627F0B5FB024B86
:104540002360204610BD00BF8C9C050010B50820DC
:1045500031F07DFE044627F0A7FB024B2360204686
:1045600010BD00BFC083050010B5082031F06FFEFC
:10457000044627F099FB024B2360204610BD00BF84
:104580003496050010B5082031F061FE044627F08E
:104590008BFB024B2360204610BD00BF28A1050005
:1045A00010B5082031F053FE044627F07DFB024B86
:1045B0002360204610BD00BF209E050010B50820D6
:1045C00031F045FE044627F06FFB024B2360204686
:1045D00010BD00BF0495050010B5082031F037FE6E
:1045E000044627F061FB024B2360204610BD00BF4C
:1045F000648E050010B5082031F029FE044627F02E
:1046000053FB024B2360204610BD00BF08990500F4
:1046100010B5082031F01BFE044627F045FB024B85
:104620002360204610BD00BFD099050010B50820BA
:1046300031F00DFE044627F037FB024B2360204685
:1046400010BD00BF0C91050010B5082031F0FFFD32
:10465000044627F029FB024B2360204610BD00BF13
:10466000D498050010B5082031F0F1FD044627F07C
:104670001BFB024B2360204610BD00BFEC900500E1
:1046800010B5082031F0E3FD044627F00DFB024B86
:104690002360204610BD00BFC897050010B5082054
:1046A00031F0D5FD044627F0FFFA024B2360204687
:1046B00010BD00BFE8A0050010B5082031F0C7FD0F
:1046C000044627F0F1FA024B2360204610BD00BFDC
:1046D000ACA3050010B5082031F0B9FD044627F061
:1046E000E3FA024B2360204610BD00BF8CA30500F7
:1046F00010B5082031F0ABFD044627F0D5FA024B87
:104700002360204610BD00BF8C98050010B508201E
:1047100031F09DFD044627F0C7FA024B2360204686
:1047200010BD00BF34A4050010B5082031F08FFD86
:10473000044627F0B9FA024B2360204610BD00BFA3
:10474000609A050010B5082031F081FD044627F07D
:10475000ABFA024B2360204610BD00BFB4910500A8
:1047600010B5082031F073FD044627F09DFA024B86
:104770002360204610BD00BF7CA4050010B50820B2
:1047800031F065FD044627F08FFA024B2360204686
:1047900010BD00BFC49D050010B5082031F057FDC5
:1047A000044627F081FA024B2360204610BD00BF6B
:1047B00004A6050010B5082031F049FD044627F095
:1047C00073FA024B2360204610BD00BF48840500E9
:1047D00010B5082031F03BFD044627F065FA024B86
:1047E0002360204610BD00BFE4A5050010B50820D9
:1047F00031F02DFD044627F057FA024B2360204686
:1048000010BD00BF409A050010B5082031F01FFD13
:10481000044627F049FA024B2360204610BD00BF32
:10482000DC9B050010B5082031F011FD044627F08F
:104830003BFA024B2360204610BD00BF54A0050088
:1048400010B5082031F003FD044627F02DFA024B85
:104850002360204610BD00BF1098050010B5082049
:1048600031F0F5FC044627F01FFA024B2360204686
:1048700010BD00BF4C8F050010B5082031F0E7FCDB
:10488000044627F011FA024B2360204610BD00BFFA
:104890004C91050010B5082031F0D9FC044627F0F2
:1048A00003FA024B2360204610BD00BF0CA2050096
:1048B00010B5082031F0CBFC044627F0F5F9024B87
:1048C0002360204610BD00BFA490050010B508204D
:1048D00031F0BDFC044627F0E7F9024B2360204687
:1048E00010BD00BF988E050010B5082031F0AFFC58
:1048F000044627F0D9F9024B2360204610BD00BFC3
:104900005C86050010B5082031F0A1FC044627F0B4
:10491000CBF9024B2360204610BD00BFAC930500CD
:1049200010B5082031F093FC044627F0BDF9024B86
:104930002360204610BD00BFB0A1050010B50820BF
:1049400031F085FC044627F0AFF9024B2360204686
:1049500010BD00BFFC8F050010B5082031F077FCBA
:10496000044627F0A1F9024B2360204610BD00BF8A
:10497000FCA2050010B5082031F069FC044627F0C0
:1049800093F9024B2360204610BD00BF149D050023
:1049900010B5082031F05BFC044627F085F9024B86
:1049A0002360204610BD00BFD096050010B508203A
:1049B00031F04DFC044627F077F9024B2360204686
:1049C00010BD00BF38A6050010B5082031F03FFC2F
:1049D000044627F069F9024B2360204610BD00BF52
:1049E0001893050010B5082031F031FC044627F07B
:1049F0005BF9024B2360204610BD00BF90A105006B
:104A000010B5082031F023FC044627F04DF9024B85
:104A10002360204610BD00BF9485050010B5082016
:104A200031F015FC044627F03FF9024B2360204685
:104A300010BD00BF509F050010B5082031F007FCE5
:104A4000044627F031F9024B2360204610BD00BF19
:104A50008C83050010B5082031F0F9FB044627F0DF
:104A600023F9024B2360204610BD00BF74A005004F
:104A700010B5082031F0EBFB044627F015F9024B86
:104A80002360204610BD00BF9487050010B50820A4
:104A900031F0DDFB044627F007F9024B2360204686
:104AA00010BD00BF00A0050010B5082031F0CFFBFD
:104AB000044627F0F9F8024B2360204610BD00BFE2
:104AC0008C93050010B5082031F0C1FB044627F097
:104AD000EBF8024B2360204610BD00BF749E05001A
:104AE00010B5082031F0B3FB044627F0DDF8024B87
:104AF0002360204610BD00BF8892050010B5082035
:104B000031F0A5FB044627F0CFF8024B2360204686
:104B100010BD00BF2C8F050010B5082031F097FBA9
:104B2000044627F0C1F8024B2360204610BD00BFA9
:104B3000E89E050010B5082031F089FB044627F0F7
:104B4000B3F8024B2360204610BD00BFC89E05008D
:104B500010B5082031F07BFB044627F0A5F8024B86
:104B60002360204610BD00BF3494050010B5082016
:104B700031F06DFB044627F097F8024B2360204686
:104B800010BD00BF80A2050010B5082031F05FFB0A
:104B9000044627F089F8024B2360204610BD00BF71
:104BA000BC9B050010B5082031F051FB044627F0EE
:104BB0007BF8024B2360204610BD00BFD88605005D
:104BC00010B5082031F043FB044627F06DF8024B86
:104BD0002360204610BD00BF3893050010B50820A3
:104BE00031F035FB044627F05FF8024B2360204686
:104BF00010BD00BFB099050010B5082031F027FBAB
:104C0000044627F051F8024B2360204610BD00BF38
:104C10002886050010B5082031F019FB044627F05E
:104C200043F8024B2360204610BD00BFA486050058
:104C300010B5082031F00BFB044627F035F8024B85
:104C40002360204610BD00BF60A2050010B50820FB
:104C500031F0FDFA044627F027F8024B2360204686
:104C600010BD00BF989F050010B5082031F0EFFA85
:104C7000044627F019F8024B2360204610BD00BF00
:104C8000A89E050010B5082031F0E1FA044627F08F
:104C90000BF8024B2360204610BD00BF389505007D
:104CA00010B5082031F0D3FA044626F0FDFF024B80
:104CB0002360204610BD00BFB89F050010B5082036
:104CC00031F0C5FA044626F0EFFF024B2360204680
:104CD00010BD00BF8884050010B5082031F0B7FA78
:104CE000044626F0E1FF024B2360204610BD00BFC2
:104CF0002899050010B5082031F0A9FA044626F0DD
:104D0000D3FF024B2360204610BD00BF1C9005005E
:104D100010B5082031F09BFA044626F0C5FF024B7F
:104D20002360204610BD00BF94A0050010B50820E8
:104D300031F08DFA044626F0B7FF024B236020467F
:104D400010BD00BF6884050010B5082031F07FFA5F
:104D5000044626F0A9FF024B2360204610BD00BF89
:104D600000A4050010B5082031F071FA044626F0C1
:104D70009BFF024B2360204610BD00BFE0A305004F
:104D800010B5082031F063FA044626F08DFF024B7F
:104D90002360204610BD00BFC09C050010B5082050
:104DA00031F055FA044626F07FFF024B236020467F
:104DB00010BD00BF6085050010B5082031F047FA2E
:104DC000044626F071FF024B2360204610BD00BF51
:104DD00008A1050010B5082031F039FA044626F084
:104DE00063FF024B2360204610BD00BF14920500F4
:104DF00010B5082031F02BFA044626F055FF024B7F
:104E00002360204610BD00BFF49C050010B50820AB
:104E100031F01DFA044626F047FF024B236020467E
:104E200010BD00BF409E050010B5082031F00FFAFC
:104E3000044626F039FF024B2360204610BD00BF18
:104E40008095050010B5082031F001FA044626F0DF
:104E50002BFF024B2360204610BD00BFB88E05001B
:104E600010B5082031F0F3F9044626F01DFF024B7F
:104E70002360204610BD00BF58A60500F8B50646C1
:104E80000D460C684B681C442B689C4206D014F8F5
:104E9000010D4BF037FD18B1012302E0002300E0C3
:104EA00000234BB12B68E41A01222146284643F027
:104EB0006BFA2B681C44E7E706F1080131602B46CA
:104EC00053F8082B9A4208D11F685C689868DA6822
:104ED000B760F4603061726102E03260AA68B2606B
:104EE0006A6872602B6000236B602B723046F8BDDD
:104EF00070B5064604684568A54208D0234653F8B5
:104F0000080B984201D031F09EF91834F4E730686C
:104F100008B131F098F9304670BD00BF61B110B5ED
:104F20000C460B4653F8080B984201D031F08BF930
:104F3000204631F088F910BD704700BF70B582B0CF
:104F400005460E4619B9914203D1002302E0002321
:104F500000E0012313B110483CF060F9941B019468
:104F60000F2C07D9002201A9284643F019F928601F
:104F7000019BAB602868012C02D13378037004E0F8
:104F80001CB1224631464BF03AFF019B6B602A6808
:104F90000021D15402B070BD7088050030B583B0D7
:104FA00004460D462C2128464CF0ADFD28B901AA37
:104FB0002946204643F0E0FC09E0024604F10803DC
:104FC00023604FF0000329462046FFF7B7FF204635
:104FD00003B030BD10B5044600F108030360044976
:104FE0004FF000030A460639FFF7A8FF204610BD20
:104FF000A288050010B5044600F1080303600449C7
:105000004FF000030A460639FFF798FF204610BD0F
:10501000A288050070B582B005460E4619B99142C6
:1050200003D1002302E0002300E0012313B1104864
:105030003CF0F4F8941B01940F2C07D9002201A92D
:10504000284643F0ADF82860019BAB602868012C2E
:1050500002D13378037004E01CB1224631464BF094
:10506000CEFE019B6B602A680021D15402B070BD56
:105070007088050010B5044600F108030360044978
:105080004FF000030A460639FFF758FF204610BDCF
:10509000A288050010B5044600F108030360044926
:1050A0004FF000030A460639FFF748FF204610BDBF
:1050B000A28805002DE9F04383B00C46012300933C
:1050C000436802689A1AD6104E4A02FB06F24E490D
:1050D000891A11B94D483CF0A4F8074601920AB963
:1050E000694600E001A90E6816443A689B1ADB1075
:1050F000444A02FB03F39E4203D3434B9E4202D831
:1051000002E0414E00E0404E5EB13F4B9E4201D96D
:105110003CF07EF806EB4603D80031F098F8804664
:1051200001E04FF000087B683A689B1A18EB030215
:105130001ED002F1080048F80300234653F8081B6C
:1051400099420CD1D3F800C0D3F804E09D68D96827
:10515000C2F808C0C2F80CE01561516102E01160AC
:10516000A1689160616851602360002363602372CD
:1051700039687D6843460A46A94223D0F3B103F15A
:1051800008041C6051F8080B88420ED1D1F8009039
:10519000D1F804C0D1F808E0C868C3F80890C3F893
:1051A0000CC0C3F810E0586102E018609068986085
:1051B00050685860116000215160117202F11801AD
:1051C0001833D8E703F118043D68D7F80490A945CF
:1051D00008D02B4653F8080B834201D031F033F846
:1051E0001835F4E7386808B131F02DF8C7F80080B9
:1051F0007C6006EB4606F3004344BB6003B0BDE8A9
:10520000F08300BFABAAAAAAAAAAAA0AA48805008A
:10521000F8B543688268934220D0DBB103F10805FA
:105220001D600A4652F8084B94420AD1D2F800E0B9
:1052300057689668D468C3F808E0DF601E615C6157
:1052400002E01C608C689C604C685C600A60002313
:105250004B600B72436818334360F8BDFFF72AFFB9
:10526000F8BD00BF30B5BBB00C46154618216846E6
:1052700042F06EFD294602A842F01BF909220F49AF
:1052800002A842F071F808210DEB010042F015F977
:105290000B4942F0B1F803A934A842F045FB684637
:1052A00042F0B4FD34A92046FFF7B2FF349836AB84
:1052B000984201D030F0C7FF3BB030BDC088050038
:1052C000048D050030B5BBB00C4615461821684664
:1052D00042F03EFD294602A842F0EBF80B221249AB
:1052E00002A842F041F808210DEB010042F0E5F878
:1052F0000E4942F081F803A934A842F015FB684634
:1053000042F084FD34A92046FFF782FF349836AB83
:10531000984201D030F097FF6A1C21464FF0000000
:10532000FFF7A0FF3BB030BDCC880500048D050021
:1053300030B5BBB00C4615461821684642F008FD52
:10534000294602A842F0B5F80922124902A842F003
:105350000BF8042102A842F0B0F80F4942F04CF8D3
:1053600003A934A842F0E0FA684642F04FFD34A9A0
:105370002046FFF74DFF349836AB984201D030F00D
:1053800062FF6A1C21464FF00000FFF79BFF3BB015
:1053900030BD00BFC0880500048D050030B5BBB02E
:1053A0000C4615461821684642F0D2FC294602A850
:1053B00042F07FF80B22124902A841F0D5FF0421E8
:1053C00002A842F07AF80F4942F016F803A934A86F
:1053D00042F0AAFA684642F019FD34A92046FFF7C8
:1053E00017FF349836AB984201D030F02CFF6A1C7E
:1053F00021464FF00000FFF79BFF3BB030BD00BFE0
:10540000CC880500048D050030B5BBB00C461546B0
:105410001821684642F09CFC294602A842F049F84F
:105420000922124902A841F09FFF012102A842F07F
:1054300044F80F4941F0E0FF03A934A842F074FAA0
:10544000684642F0E3FC34A92046FFF7E1FE3498B9
:1054500036AB984201D030F0F6FE6A1C21464FF080
:105460000000FFF79BFF3BB030BD00BFC0880500C8
:10547000048D050030B5BBB00C46154618216846B2
:1054800042F066FC294602A842F013F80B221249AA
:1054900002A841F069FF012102A842F00EF80F496D
:1054A00041F0AAFF03A934A842F03EFA684642F050
:1054B000ADFC34A92046FFF7ABFE349836AB9842DA
:1054C00001D030F0C0FE6A1C21464FF00000FFF70B
:1054D0009BFF3BB030BD00BFCC880500048D0500AC
:1054E00030B5BBB00C4615461821684642F030FC7A
:1054F000294602A841F0DDFF0B22124902A841F023
:1055000033FF012102A841F0D8FF0F4941F074FF99
:1055100003A934A842F008FA684642F077FC34A99F
:105520002046FFF775FE349836AB984201D030F034
:105530008AFE6A1C21464FF00000FFF79BFF3BB03C
:1055400030BD00BFCC880500048D050010B50446B1
:10555000002202604260826001464FF00000FFF7C7
:10556000BFFF204610BD00BF10B5044600F1080380
:10557000036004494FF000030A460639FFF7DEFCDA
:10558000204610BDA288050010B5044600F10803AE
:10559000036004494FF000030A460639FFF7CEFCCA
:1055A000204610BDA288050010B5044600F108038E
:1055B000036004494FF000030A460639FFF7BEFCBA
:1055C000204610BDA28805002DE9F04FADF2AC4D8C
:1055D0000C4607920893DDF8D054DDF8D47427AB5D
:1055E0002593064618B1FBF7EDFD321800E0421E88
:1055F0004FF00003314625A8FFF7A0FC33780BB924
:10560000BA4900E0BA4925A843F0C6F8864621AB5E
:105610001F9384465CF8083B63450CD10DF1840868
:10562000DCF80000DCF80410DCF80820DCF80C30B2
:10563000A8E80F0002E01F9383682193DEF804308E
:105640002093CEF800C00023CEF804308EF8083046
:1056500007991FA843F0A0F886461BAB1993844610
:105660005CF8083B63450CD10DF16C08DCF80000D8
:10567000DCF80410DCF80820DCF80C30A8E80F0097
:1056800002E0199383681B93DEF804301A93CEF876
:1056900000C00023CEF804308EF80830944919A8D1
:1056A00043F07AF8864615AB139384465CF8083BC2
:1056B00063450CD10DF15408DCF80000DCF804104F
:1056C000DCF80820DCF80C30A8E80F0002E01393A7
:1056D00083681593DEF804301493CEF800C00023DD
:1056E000CEF804308EF80830396805EB4503DB004E
:1056F000CA185268C95813A843F012F886460FAB6F
:105700000D9384465CF8083B63450CD10DF13C08D1
:10571000DCF80000DCF80410DCF80820DCF80C30C1
:10572000A8E80F0002E00D9383680F93DEF80430C1
:105730000E93CEF800C00023CEF804308EF8083067
:105740000D9B0B93089931A8FFF728FC31A92BA8D2
:10575000FFF794FB2B9B0A9337A8FFF78BFC379B33
:1057600009933FAB3D93216862684FF000030A4400
:105770003DA8FFF74FFCD4F81880CDF80C81FBF75B
:10578000E1FD8146D4F800B0012027F0CFF910BB2D
:105790004FF40173574A032145A82BF0C1FADFF8F3
:1057A0006CA132225449504641F0DEFD6A22534931
:1057B000504641F0D9FD5946504641F01DFE824603
:1057C00001224F4941F0D0FD4146504641F071FE63
:1057D00045A827F081FAD4F800B0D4F818A0012029
:1057E00027F0A4F910BB40F21323424A032144A836
:1057F0002BF096FADFF8148132223F49404641F0FF
:10580000B3FD6F223F49404641F0AEFD5946404648
:1058100041F0F2FD80460122394941F0A5FD514693
:10582000404641F046FE44A827F056FA042030F0E6
:105830000EFD354B03600490002303930293CDF8D3
:1058400004900DF1F408CDF80080099A0A990B989C
:1058500030F040F8D8F800003FAB984201D030F06B
:10586000F2FC379839AB984201D030F0ECFC2B9821
:105870002DAB984201D030F0E6FC319833AB984222
:1058800001D030F0E0FC0D980FAB984201D030F021
:10589000DAFC139815AB984201D030F0D4FC19987B
:1058A0001BAB984201D030F0CEFC1F9821AB984240
:1058B00001D030F0C8FC259827AB984201D030F0D9
:1058C000C2FC013561AB5F9326B13046FBF77AFC31
:1058D000321800E0721E4FF0000331465FA8FFF758
:1058E0002DFB3378A3B9014913E000BF24BB0500A9
:1058F000C4BC0500D88805005089050084890500CE
:10590000F0890500F4890500D89005004808FF1FBC
:10591000B9495FA842F040FF864667AB659384466D
:105920005CF8083B63450CD10DF5CE78DCF800003F
:10593000DCF80410DCF80820DCF80C30A8E80F00D4
:1059400002E0659383686793DEF804306693CEF8CF
:1059500000C00023CEF804308EF80830079965A8FF
:1059600042F01AFF86466DAB6B9384465CF8083BA9
:1059700063450CD10DF5DA78DCF80000DCF8041092
:10598000DCF80820DCF80C30A8E80F0002E06B938C
:1059900083686D93DEF804306C93CEF800C000236A
:1059A000CEF804308EF8083093496BA842F0F4FE2C
:1059B000864673AB719384465CF8083B63450CD113
:1059C0000DF5E678DCF80000DCF80410DCF80820BF
:1059D000DCF80C30A8E80F0002E071938368739341
:1059E000DEF804307293CEF800C00023CEF8043005
:1059F0008EF80830396805EB4503DB00CA18526899
:105A0000C95871A842F08CFE864679AB77938446DC
:105A10005CF8083B63450CD10DF5F278DCF800002A
:105A2000DCF80410DCF80820DCF80C30A8E80F00E3
:105A300002E0779383687993DEF804307893CEF8A8
:105A400000C00023CEF804308EF80830779B09930D
:105A5000089953A8FFF7A2FA53A959A8FFF70EFA1D
:105A6000599B0A934DA8FFF715FB4D9B0B9348AB31
:105A70004693216862684FF000030A4446A8FFF786
:105A8000C9FAD4F81880CDF83081FBF75FFC814665
:105A9000D4F800B0012027F049F810BB4FF401738F
:105AA000564A03217EA82BF03BF9DFF86CA1322285
:105AB0005349504641F058FC6A225249504641F041
:105AC00053FC5946504641F097FC824601224E490C
:105AD00041F04AFC4146504641F0EBFC7EA827F0DD
:105AE000FBF8D4F800B0D4F818A0012027F01EF875
:105AF00010BB40F21323414A03217DA82BF010F97B
:105B0000DFF8148132223E49404641F02DFC6F22DD
:105B10003E49404641F028FC5946404641F06CFC65
:105B200080460122384941F01FFC5146404641F071
:105B3000C0FC7DA827F0D0F8042030F088FB344B5F
:105B400003600490002303930293CDF804900DF5B5
:105B50008C78CDF800800B9A0A9909982FF0BAFE3C
:105B6000D8F8000048AB984201D030F06CFB4D985B
:105B70004FAB984201D030F066FB59985BAB98422E
:105B800001D030F060FB539855AB984201D030F013
:105B90005AFB779879AB984201D030F054FB71985A
:105BA00073AB984201D030F04EFB6B986DAB9842CE
:105BB00001D030F048FB659867AB984201D030F0D7
:105BC00042FB5F9861AB984201D030F03CFB01355D
:105BD0009AAB989326B13046FBF7F4FA321800E0FE
:105BE000721E4FF00003314698A8FFF7A7F93378EB
:105BF000A3B9084913E000BFC4BC0500D88805005C
:105C00005089050084890500F0890500F4890500A4
:105C1000EC9F050024BB05004808FF1FB94998A860
:105C200042F0BAFD8646A0AB9E9384465CF8083BE2
:105C300063450CD10DF52078DCF80000DCF8041089
:105C4000DCF80820DCF80C30A8E80F0002E09E9396
:105C50008368A093DEF804309F93CEF800C0002341
:105C6000CEF804308EF8083007999EA842F094FDD3
:105C70008646A6ABA49384465CF8083B63450CD1EA
:105C80000DF52678DCF80000DCF80410DCF80820BC
:105C9000DCF80C30A8E80F0002E0A4938368A69318
:105CA000DEF80430A593CEF800C00023CEF804300F
:105CB0008EF808309349A4A842F06EFD8646ACAB3E
:105CC000AA9384465CF8083B63450CD10DF52C780B
:105CD000DCF80000DCF80410DCF80820DCF80C30FC
:105CE000A8E80F0002E0AA938368AC93DEF80430C2
:105CF000AB93CEF800C00023CEF804308EF8083005
:105D0000396805EB4503DB00CA185268C958AAA8D0
:105D100042F006FD8646B2ABB09384465CF8083B81
:105D200063450CD10DF53278DCF80000DCF8041086
:105D3000DCF80820DCF80C30A8E80F0002E0B09393
:105D40008368B293DEF80430B193CEF800C000232C
:105D5000CEF804308EF80830B09B099308998CA8CF
:105D6000FFF71CF98CA992A8FFF788F8929B0A9379
:105D700086A8FFF7F9FB869B0B9381AB7F93216885
:105D800062684FF000030A447FA8FFF743F9D4F894
:105D90001880CDF81482FBF7DDFA8146D4F800B004
:105DA000012026F0C3FE10BB4FF40173564A0321B5
:105DB000B7A82AF0B5FFDFF86CA13222534950464C
:105DC00041F0D2FA6A225249504641F0CDFA594682
:105DD000504641F011FB824601224E4941F0C4FA7F
:105DE0004146504641F065FBB7A826F075FFD4F850
