:10000000000000206D040000B10400003D1C000051
:10001000411C0000451C0000491C000000000000BD
:10002000000000000000000000000000B10400001B
:10003000B104000000000000B1040000B1040000A1
:10004000B1040000B1040000B1040000B1040000DC
:10005000B1040000B1040000B1040000B1040000CC
:10006000B1040000B1040000B1040000B1040000BC
:10007000B1040000B1040000B1040000B1040000AC
:10008000B1040000B1040000B1040000B10400009C
:10009000B1040000B10400004D1C0000B1040000D8
:1000A000B1040000B1040000B1040000B10400007C
:1000B000B1040000B1040000B1040000B10400006C
:1000C000B1040000B1040000B1040000B10400005C
:1000D000B1040000B1040000B1040000B10400004C
:1003F000B1040000B1040000B1040000FFFFFFFFE2
:10040000FFFFFFFFFFFFFFFFFFFFFFFFFE7FFFFF7D
:1004100010B5054C237833B9044B13B10448AFF33E
:1004200000800123237010BDAC06FF1F00000000F8
:1004300088720300084B10B51BB108490848AFF398
:1004400000800848036803B910BD074B002BFBD0A0
:10045000BDE81040184700BF00000000B006FF1FB5
:1004600088720300A806FF1F0000000072B600217A
:10047000002200230024002500260027B846B946A4
:10048000BA46BB46BC4606488546064880470648ED
:1004900080470648804762B601F0DAFBFEE70000BD
:1004A00000000020BD1E0000ED1E00002D7E020099
:1004B000FFF7FEBF81F0004102E000BF83F0004380
:1004C00030B54FEA41044FEA430594EA050F08BFEF
:1004D00090EA020F1FBF54EA000C55EA020C7FEAB3
:1004E000645C7FEA655C00F0E2804FEA5454D4EB30
:1004F0005555B8BF6D420CDD2C4480EA020281EAFA
:10050000030382EA000083EA010180EA020281EA31
:100510000303362D88BF30BD11F0004F4FEA013183
:100520004FF4801C4CEA113102D0404261EB410192
:1005300013F0004F4FEA03334CEA133302D0524218
:1005400063EB430394EA050F00F0A780A4F10104D4
:10055000D5F1200E0DDB02FA0EFC22FA05F280180E
:1005600041F1000103FA0EF2801843FA05F35941F4
:100570000EE0A5F120050EF1200E012A03FA0EFC73
:1005800028BF4CF0020C43FA05F3C01851EBE3719D
:1005900001F0004507D54FF0000EDCF1000C7EEBBA
:1005A00000006EEB0101B1F5801F1BD3B1F5001FF8
:1005B0000CD349085FEA30004FEA3C0C04F1010417
:1005C0004FEA445212F5800F80F09A80BCF1004F40
:1005D00008BF5FEA500C50F1000041EB045141EAC2
:1005E000050130BD5FEA4C0C404141EB010111F4C3
:1005F000801FA4F10104E9D191F0000F04BF01466E
:100600000020B1FA81F308BF2033A3F10B03B3F14B
:1006100020020CDA0C3208DD02F1140CC2F10C02DB
:1006200001FA0CF021FA02F10CE002F11402D8BF39
:10063000C2F1200C01FA02F120FA0CFCDCBF41EA05
:100640000C019040E41AA2BF01EB0451294330BDD4
:100650006FEA04041F3C1CDA0C340EDC04F11404B1
:10066000C4F1200220FA04F001FA02F340EA030088
:1006700021FA04F345EA030130BDC4F10C04C4F1CE
:10068000200220FA02F001FA04F340EA03002946AE
:1006900030BD21FA04F0294630BD94F0000F83F4F8
:1006A000801306BF81F480110134013D4EE77FEADB
:1006B000645C18BF7FEA655C29D094EA050F08BF27
:1006C00090EA020F05D054EA000C04BF1946104608
:1006D00030BD91EA030F1EBF0021002030BD5FEA4C
:1006E000545C05D14000494128BF41F0004130BD74
:1006F00014F580043CBF01F5801130BD01F00045C8
:1007000045F0FE4141F470014FF0000030BD7FEA3A
:10071000645C1ABF194610467FEA655C1CBF0B4635
:10072000024650EA013406BF52EA033591EA030F4C
:1007300041F4002130BD00BF90F0000F04BF002144
:10074000704730B54FF4806404F132044FF0000577
:100750004FF0000150E700BF90F0000F04BF0021F0
:10076000704730B54FF4806404F1320410F0004556
:1007700048BF40424FF000013EE700BF42004FEA51
:10078000E2014FEA31014FEA02701FBF12F07F43CE
:1007900093F07F4F81F06051704792F0000F14BFCB
:1007A00093F07F4F704730B54FF4607401F000450F
:1007B00021F0004120E700BF50EA010208BF704766
:1007C00030B54FF000050AE050EA010208BF70475B
:1007D00030B511F0004502D5404261EB41014FF4C4
:1007E000806404F132045FEA915C3FF4DCAE4FF0C8
:1007F00003025FEADC0C18BF03325FEADC0C18BFAF
:10080000033202EBDC02C2F1200300FA03FC20FAFF
:1008100002F001FA03FE40EA0E0021FA02F114444C
:10082000C1E600BF70B54FF0FF0C4CF4E06C1CEA61
:1008300011541DBF1CEA135594EA0C0F95EA0C0FD6
:1008400000F0DEF82C4481EA030621EA4C5123EA49
:100850004C5350EA013518BF52EA033541F4801178
:1008600043F4801338D0A0FB02CE4FF00005E1FB2B
:1008700002E506F00042E0FB03E54FF00006E1FB75
:1008800003569CF0000F18BF4EF0010EA4F1FF04B8
:10089000B6F5007F64F5407404D25FEA4E0E6D41F8
:1008A00046EB060642EAC62141EA55514FEAC52009
:1008B00040EA5E504FEACE2EB4F1FD0C88BFBCF585
:1008C000E06F1ED8BEF1004F08BF5FEA500E50F136
:1008D000000041EB045170BD06F0004646EA0101FC
:1008E00040EA020081EA0301B4EB5C04C2BFD4EB2E
:1008F0000C0541EA045170BD41F480114FF0000E27
:10090000013C00F3AB8014F1360FDEBF002001F094
:10091000004170BDC4F10004203C35DA0C341BDC0E
:1009200004F11404C4F1200500FA05F320FA04F0E0
:1009300001FA05F240EA020001F0004221F0004114
:1009400010EBD37021FA04F642EB06015EEA430E87
:1009500008BF20EAD37070BDC4F10C04C4F12005B7
:1009600000FA04F320FA05F001FA04F240EA02006A
:1009700001F0004110EBD37041F100015EEA430E3B
:1009800008BF20EAD37070BDC4F1200500FA05F25B
:100990004EEA020E20FA04F301FA05F243EA0203DA
:1009A00021FA04F001F0004121FA04F220EA0200E9
:1009B00000EBD3705EEA430E08BF20EAD37070BD2F
:1009C00094F0000F0FD101F00046400041EB01010F
:1009D00011F4801F08BF013CF7D041EA060195F0F1
:1009E000000F18BF704703F00046520043EB0303AB
:1009F00013F4801F08BF013DF7D043EA0603704798
:100A000094EA0C0F0CEA135518BF95EA0C0F0CD0A2
:100A100050EA410618BF52EA4306D1D181EA0301E8
:100A200001F000414FF0000070BD50EA410606BFE2
:100A30001046194652EA430619D094EA0C0F02D127
:100A400050EA013613D195EA0C0F05D152EA03366C
:100A50001CBF104619460AD181EA030101F000418A
:100A600041F0FE4141F470014FF0000070BD41F0D3
:100A7000FE4141F4780170BD70B54FF0FF0C4CF4AD
:100A8000E06C1CEA11541DBF1CEA135594EA0C0FCC
:100A900095EA0C0F00F0A7F8A4EB050481EA030E19
:100AA00052EA03354FEA013100F088804FEA033300
:100AB0004FF0805545EA131343EA12634FEA0222CE
:100AC00045EA111545EA10654FEA00260EF000418F
:100AD0009D4208BF964244F1FD0404F5407402D2E1
:100AE0005B084FEA3202B61A65EB03055B084FEA72
:100AF00032024FF480104FF4002CB6EB020E75EB6F
:100B0000030E22BFB61A754640EA0C005B084FEA96
:100B10003202B6EB020E75EB030E22BFB61A754613
:100B200040EA5C005B084FEA3202B6EB020E75EB5E
:100B3000030E22BFB61A754640EA9C005B084FEAD6
:100B40003202B6EB020E75EB030E22BFB61A7546E3
:100B500040EADC0055EA060E18D04FEA051545EAD2
:100B600016754FEA06164FEAC30343EA52734FEA7B
:100B7000C2025FEA1C1CC0D111F4801F0BD141EAF4
:100B800000014FF000004FF0004CB6E711F4801F59
:100B900004BF01430020B4F1FD0C88BFBCF5E06F39
:100BA0003FF6AFAEB5EB030C04BFB6EB020C5FEA49
:100BB000500C50F1000041EB045170BD0EF0004E9E
:100BC0004EEA113114EB5C04C2BFD4EB0C0541EAD0
:100BD000045170BD41F480114FF0000E013C90E6CD
:100BE00045EA060E8DE60CEA135594EA0C0F08BF91
:100BF00095EA0C0F3FF43BAF94EA0C0F0AD150EA90
:100C000001347FF434AF95EA0C0F7FF425AF104622
:100C100019462CE795EA0C0F06D152EA03353FF44A
:100C2000FDAE1046194622E750EA410618BF52EAC7
:100C300043067FF4C5AE50EA41047FF40DAF52EA9B
:100C400043057FF4EBAE12E74FF0FF3C06E000BF38
:100C50004FF0010C02E000BF4FF0010C4DF804CD45
:100C60004FEA410C7FEA6C5C4FEA430C18BF7FEA05
:100C70006C5C1BD001B050EA410C0CBF52EA430C33
:100C800091EA030F02BF90EA020F0020704710F1B3
:100C9000000F91EA030F58BF994208BF90422CBF42
:100CA000D8176FEAE37040F0010070474FEA410C3B
:100CB0007FEA6C5C02D150EA013C07D14FEA430C59
:100CC0007FEA6C5CD6D152EA033CD3D05DF8040BCA
:100CD000704700BF8446104662468C4619466346FC
:100CE00000E000BF01B5FFF7B7FF002848BF10F1D3
:100CF000000F01BD4DF808EDFFF7F4FF0CBF012018
:100D000000205DF808FB00BF4DF808EDFFF7EAFF93
:100D100034BF012000205DF808FB00BF4DF808ED4E
:100D2000FFF7E0FF94BF012000205DF808FB00BF43
:100D30004DF808EDFFF7CEFF94BF012000205DF8CD
:100D400008FB00BF4DF808EDFFF7C4FF34BF0120DA
:100D500000205DF808FB00BF7BB972B90029BEBF57
:100D600000204FF0004106E008BF00281CBF6FF0D4
:100D700000414FF0FF3000F0C9B9ADF1080C6DE94A
:100D800004CE002909DB002B1ADB00F04DF8DDF85A
:100D900004E0DDE9022304B07047404261EB410109
:100DA000002B1BDB00F040F8DDF804E0DDE9022356
:100DB00004B0404261EB4101524263EB4303704790
:100DC000524263EB430300F02FF8DDF804E0DDE965
:100DD000022304B0404261EB41017047524263EB91
:100DE000430300F021F8DDF804E0DDE9022304B05C
:100DF000524263EB4303704753B94AB9002908BF15
:100E000000281CBF4FF0FF314FF0FF3000F07EB9DB
:100E1000ADF1080C6DE904CE00F006F8DDF804E051
:100E2000DDE9022304B070472DE9F0478C460E46F9
:100E30000446089D002B50D18A4217466CD9B2FA5D
:100E400082FEBEF1000F0BD0CEF1200420FA04F494
:100E500001FA0EF644EA060C02FA0EF700FA0EF456
:100E60004FEA1749220CBCFBF9F01FFA87F809FB7F
:100E700010C642EA064600FB08F3B34209D9F61948
:100E800000F1FF3280F02281B34240F21F8102382C
:100E90003E44F61AA2B2B6FBF9F309FB136642EA26
:100EA000064403FB08F8A04509D9E41903F1FF3211
:100EB00080F00A81A04540F20781023B3C44C8EB28
:100EC000040443EA00400021002D62D024FA0EF40D
:100ED00000232C606B60BDE8F0878B4207D9002DA2
:100EE00055D0002185E841000846BDE8F087B3FAF7
:100EF00083F1002940F09080B34202D3824200F295
:100F0000F880841A66EB03060120B446002D40D019
:100F100085E81010BDE8F08712B90127B7FBF2F79A
:100F2000B7FA87FEBEF1000F35D1F31B4FEA174821
:100F30001FFA87FC0121B3FBF8F0220C08FB1036E6
:100F400042EA06460CFB00F3B34207D9F61900F15A
:100F5000FF3202D2B34200F2CE801046F61AA2B29D
:100F6000B6FBF8F308FB136642EA06440CFB03FCED
:100F7000A44507D9E41903F1FF3202D2A44500F2D7
:100F8000B5801346CCEB040443EA00409CE72946B5
:100F90002846BDE8F087CEF1200106FA0EF307FAE5
:100FA0000EF720FA01F94FEA1748CE4049EA030943
:100FB000B6FBF8FA4FEA194408FB1A661FFA87FCD9
:100FC00044EA06430AFB0CF29A4200FA0EF40AD9EC
:100FD000DB190AF1FF3180F087809A4240F2848069
:100FE000AAF1020A3B449B1A1FFA89F9B3FBF8F1F4
:100FF00008FB113349EA034301FB0CF69E4207D973
:10100000DB1901F1FF326BD29E4269D902393B44B0
:101010009B1B41EA0A418EE7C1F1200E22FA0EF431
:101020008B40234320FA0EF706FA01F44FEA134CE3
:1010300026FA0EF63C43B6FBFCF9270C0CFB1966AE
:101040001FFA83F847EA064609FB08F7B74202FA97
:1010500001F200FA01FA08D9F61809F1FF3041D27D
:10106000B7423FD9A9F102091E44F61BA0B2B6FB54
:10107000FCF40CFB146640EA064704FB08F8B8458C
:1010800007D9FF1804F1FF3028D2B84526D9023C11
:101090001F4444EA0940C8EB0707A0FB02894F45FB
:1010A00044464E4614D329D065B3BAEB040367EB2C
:1010B000060707FA0EFECB40CF404EEA030385E851
:1010C00088000021BDE8F0871346F8E61046E0E608
:1010D000B8EB020469EB03060138E5E70446D8E7FC
:1010E000114695E78146C0E78A467CE7023B3C44CF
:1010F00048E708460AE702383E442FE7C245E7D3EF
:101100003E46D1E72946BDE8F08700BF704700BFE3
:1011100001F0FF01102A2BDB10F0070F08D010F8A8
:10112000013B013A8B422DD010F0070F42B3F6D1AC
:10113000F0B441EA012141EA014122F007047FF0C5
:1011400000070023F0E80256083C85EA010586EA1C
:10115000010685FA47F5A3FA87F586FA47F6A5FA58
:1011600087F68EB9EED1F0BC01F0FF0102F0070264
:1011700032B110F8013B013A83EA010313B1F8D10F
:101180000020704701387047002D06BF35460338F0
:10119000073815F0010F07D1013015F4807F02BF29
:1011A000013015F4C03F0130F0BC0138704700BF7A
:1011B00010F8012B11F8013B012A28BF9A42F7D001
:1011C000D01A7047034613F8012B002AFBD1181AD6
:1011D000013870474FEA410C7FEA6C5C02D150EA5B
:1011E000013C0AD14FEA430C7FEA6C5C02D152EA1F
:1011F000033C02D14FF0000070474FF001007047F0
:101200004FEA410212F5001215D211D56FF478732E
:10121000B3EB625212D94FEAC12343F0004343EAD1
:10122000505311F0004F23FA02F018BF40427047AC
:101230004FF00000704750EA013005D111F0004036
:1012400008BF6FF0004070474FF00000704700BFCC
:101250004A0011D212F5001211D20DD56FF4787335
:10126000B3EB62520ED44FEAC12343F0004343EA8A
:10127000505323FA02F070474FF00000704750EAD5
:10128000013002D14FF0FF3070474FF0000070473F
:101290004FEA4102B2F1E04324BFB3F5001CDCF198
:1012A000FE5C0DD901F0004C4FEAC0024CEA5070D0
:1012B000B2F1004F40EB830008BF20F001007047FF
:1012C00011F0804F21D113F13872BCBF01F0004002
:1012D000704741F480114FEA5252C2F11802C2F134
:1012E000200C10FA0CF320FA02F018BF40F00100B5
:1012F0004FEAC1234FEAD32303FA0CFC40EA0C0067
:1013000023FA02F34FEA4303CCE77FEA625307D1A3
:1013100050EA01331EBF4FF0FE4040F440007047DA
:1013200001F0004040F0FE4040F40000704700BF74
:1013300000207047704700BF014B0360704700BF3B
:10134000C4F80200014B0360704700BFC4F80200FC
:1013500010B50446024B03600CF087FA204610BD1E
:10136000C4F8020010B50446024B03600CF07DFA8D
:10137000204610BDC4F8020010B50446024B0360BD
:1013800002F050F9204610BD00F9020010B50446E5
:10139000044B036002F046F920460CF066FA204642
:1013A00010BD00BF00F9020010B50446024B0360F7
:1013B00002F038F9204610BDC8FB020010B5044603
:1013C000044B036002F02EF920460CF04EFA204642
:1013D00010BD00BFC8FB020010B508200CF049FA90
:1013E000044602F077F8024B2360204610BD00BF90
:1013F000C8FB020010B508200CF03BFA044602F0CE
:1014000069F8024B2360204610BD00BF00F90200BE
:1014100070B582B004460D46012002F09FFF88BBE4
:101420004FF40173194A032101A807F011F9184E6E
:101430003222184930461DF091FA6A221649304688
:101440001DF08CFA4CB9326852F80C0C30444169EA
:1014500041F0010117F040FA07E02046FFF7B2FE25
:10146000024621460A481DF079FA094C01220B492F
:1014700020461DF073FA294620461DF014FB01A8F2
:1014800003F042F8002002B070BD00BF18F902005E
:101490004808FF1F90F90200C4F9020030FA020068
:1014A00070B582B004460D46012002F057FF88BB9C
:1014B00040F21323194A032101A807F0C9F8184E76
:1014C0003222184930461DF049FA6F22164930463B
:1014D0001DF044FA4CB9326852F80C0C30444169A2
:1014E00041F0010117F0F8F907E02046FFF76AFE26
:1014F000024621460A481DF031FA094C01220B49E7
:1015000020461DF02BFA294620461DF0CCFA01A8F2
:1015100002F0FAFF002002B070BD00BF18F902000F
:101520004808FF1F90F9020034FA020030FA020066
:1015300070B582B005460E4619B9914203D1002319
:1015400002E0002300E0012313B1104817F076F900
:10155000941B01940F2C07D9002201A928461EF0E4
:10156000D9F82860019BAB602868012C02D1337840
:10157000037004E01CB12246314626F0F0FE019BC8
:101580006B602A680021D15402B070BDA4FA020039
:10159000012840F092804FF6FF73994240F08D8011
:1015A0002DE9F043A3B0454C20460CF079F9444AAC
:1015B000444920460CF054F9434C13AA21460DA887
:1015C0001EF094FC06AF08AE06960D994FF000038E
:1015D0000E9A0A443846FFF7ABFF0D250C9503F031
:1015E0000DFB804629462046FFF712FF814629461B
:1015F0002046FFF755FF044604200CF03AF9334B20
:10160000036004900394CDF80890CDF8048000970F
:1016100000231A462E492F480BF0F4FD2E4B18607C
:101620000698B04201D00CF020F90D980FAB98420B
:1016300001D00CF01AF9244C21AA21461BA81EF057
:1016400055FC14AF16AE14961B994FF000031C9A6C
:101650000A443846FFF76CFF15251A9503F0CEFAB9
:10166000804629462046FFF7D3FE8146294620467C
:10167000FFF716FF044604200CF0FBF8174B03603D
:1016800004900394CDF80890CDF8048000970023CF
:101690001A4613490F480BF0B5FD124B1860149809
:1016A000B04201D00CF0E1F81B981DAB984201D07C
:1016B0000CF0DBF823B0BDE8F0837047D006FF1FC5
:1016C0000004FF1FB9D90000D0FA0200D8F80200C8
:1016D0001CFB020024FB0200C806FF1FECF80200FE
:1016E00034FB0200CC06FF1F08B50B460168184604
:1016F0001DF0D9F908BD00BF08B508461146FFF72F
:10170000F3FF08BD08B50A4601464FF00000FFF799
:10171000F3FF08BD08B5FFF7F5FF08BD2DE9F0435D
:10172000C1B005460F4612A817F0C0F9824B1293BC
:1017300000242E948DF8BC408DF8BD403094319437
:10174000329433947D4EB368009353F80C3CF268A6
:101750004DF803200194009B53F80C0C214668447B
:1017600017F02AF93369029353F80C3C40AA13444A
:10177000726943F8F82C029B53F80C0C214602AB1B
:10178000184417F019F97368009353F80C3CB269C8
:101790004DF803206A4B009303F128021292143390
:1017A0000293684B03930494059406940794089459
:1017B00009940AA80CF084FE634B039318230B933F
:1017C0000EAB0C930D948DF8384003A912A817F0B6
:1017D000F3F802A93846FFF79DFF05F108032B60D7
:1017E0006C602C72089A002A6BD006998A4233D911
:1017F0003CAC3A944FF0000307993AA8FFF798FEE3
:101800002B4653F8082B3A99A14201D1002000E061
:10181000012090B19A4202D0D5F8089000E0002251
:1018200029603B9B6B603C9BAB601AB13A92CDF850
:10183000F09006E03CAB3A9303E03AA928461DF04D
:10184000F8FF00233B933A9A13703A983CAB9842C6
:101850003BD00CF00AF838E036AC34944FF000037B
:101860000A46079934A8FFF763FE2B4653F8082B66
:101870003499A14201D1002000E0012090B19A42A8
:1018800002D0D5F8088000E000222960359B6B600B
:10189000369BAB601AB13492CDF8D88006E036ABF7
:1018A000349303E034A928461DF0C3FF0023359389
:1018B000349A1370349836AB984206D00BF0D5FFAB
:1018C00003E00CA928461DF0B4FF1D4B009303F163
:1018D00028021292143302931B4B03930C980EAB05
:1018E000984201D00BF0C1FF164B03930AA80CF0ED
:1018F00015F9124B5A68009252F80C2C99694DF860
:1019000002101A69029252F80C2C40A90A44596933
:1019100042F8F81C9A68009252F80C2CDB684DF8DB
:10192000023000230193044B129312A817F0FEF823
:10193000284641B0BDE8F08380500300345A0300CC
:10194000685A03002C5B03007059030010B504466D
:10195000FFF7E4FE204610BD2DE9F0418EB00446AD
:101960000F4690461E46149A194602A8FFF7EEFF4E
:1019700008AD324614992846FFF7E8FF002301938B
:10198000009502AB4246394620460BF0C3F9089851
:101990000AAB984201D00BF068FF029804AB984262
:1019A00001D00BF062FF20460EB0BDE8F08100BF11
:1019B00070B582B0044606981E680568AE4203D131
:1019C000204601F049F903E000902046FFF7C4FFEC
:1019D000204602B070BD00BF30B58DB00223049325
:1019E00005936E4905AB009304AB0A4602A8FFF7C6
:1019F000DFFF9DF80830002B53D1039B0BB11B6810
:101A000000E0674B00930E23664A022106A805F00A
:101A100029FB07A801F0A6F833226349079808308C
:101A20001CF09CFF079B03F108059B6853F80C3CD6
:101A30002B44DC6F0CB916F0FEFE237F13B194F833
:101A4000271008E0204610F066F923689B690A21F8
:101A500020469847014628461CF09BFE1CF027FEB6
:101A600007A906A807F000FD079818B110B1036890
:101A70005B6898470023079306A800F02DFF039C9E
:101A8000002C00F08980002C00F08680234653F85B
:101A9000080B984201D00BF0E8FE20460BF0E5FE63
:101AA0007AE0039C54B14CB1234653F8080B98429A
:101AB00001D00BF0DAFE20460BF0D7FE0023039393
:101AC000012308930993394909AB009308AB0A46EF
:101AD00002A8FFF76DFF9DF80830002B4FD1039B44
:101AE0000BB11B6800E02E4B00930F232D4A0221FF
:101AF0000AA805F0B7FA0BA801F034F83D222C49EA
:101B00000B9808301CF02AFF0B9B03F108059B681B
:101B100053F80C3C2B44DC6F0CB916F08CFE237F81
:101B200013B194F8271008E0204610F0F4F8236869
:101B30009B690A2120469847014628461CF029FE49
:101B40001CF0B5FD0BA90AA807F08EFC0B9818B184
:101B500010B103685B68984700230B930AA800F054
:101B6000BBFE039CC4B1BCB1234653F8080B98429A
:101B700001D00BF07AFE20460BF077FE0CE0039CC0
:101B800054B14CB1234653F8080B984201D00BF0E6
:101B90006CFE20460BF069FE0DB030BD44FB020028
:101BA000BC100300D0FA020048FB02007CFB0200DC
:101BB00080FB020008B54FF6FF710120FFF7E8FC3B
:101BC00008BD00BF01280ED14FF6FF7399420AD11C
:101BD00010B5054C20460BF063FE044A044920462C
:101BE0000BF03EFE10BD7047D406FF1F0004FF1F20
:101BF000B9D90000084AD2F82C3143F08043C2F82A
:101C00002C31064B9A6942F400729A61DA6942F407
:101C10000072DA61704700BF0050064000B0044017
:101C2000044B054A5A604FF6FF729A604FF4045213
:101C30001A6070470020054020C528D9FEE700BF84
:101C4000FEE700BFFEE700BFFEE700BFFEE700BF04
:101C500030B589B0FFF7E4FF00F07EF800F098F8A7
:101C600000F0C6F8FFF7C6FF00F0D4F8104800F007
:101C7000F5F8104800F0F2F803AC0F4D0FCD0FC48B
:101C80002B6824F8023B1B0C237003AB0293012347
:101C9000019302A901A80BF0D7FD05F041FC06F065
:101CA00003FF0446E0B200F0CFF800F0FBF8F9E7DC
:101CB000E0FB0200FCFB02001CFC020008B54FF632
:101CC000FF710120FFF77EFF08BD00BF08B508B116
:101CD000012905D825F064FB16230360002008BD08
:101CE0002F2202700022427008BD00BF08B525F007
:101CF00057FB0D2303604FF0FF3008BD08B520B13E
:101D0000034600201860586008BD25F049FB1623E3
:101D100003604FF0FF3008BD08B512B10846114608
:101D200030B925F03DFB162303604FF0FF3008BDAE
:101D300000F0A0F8002008BD08B525F031FB022313
:101D400003604FF0FF3008BD08B525F029FB0523DF
:101D500003604FF0FF3008BD0C4B40F20112C3F896
:101D600004212422C3F80821084BD3F8003113F4CE
:101D7000000FF9D10122054BC3F80021034BD3F822
:101D8000003113F0807FF9D0704700BF004006405B
:101D9000164BD3F8003613F4000FF9D1134BD3F8D8
:101DA000002622F00102C3F80026D3F8042642F4EC
:101DB000407242F00202C3F804264FF4C012C3F886
:101DC00008260A4BD3F8003613F4000FF9D1074A5E
:101DD000D2F8003643F00103C2F80036034BD3F8C3
:101DE000003613F0807FF9D0704700BF00400640F6
:101DF000064B40F20112C3F80422054A5A61034B14
:101E00001B69C3F30363062BF9D1704700400640FA
:101E1000120001060A4BD3F8AC2122F08042C3F82D
:101E2000AC21D3F8AC2142F08442C3F8AC2103F5D5
:101E3000C043044A1A614FF440229A61704700BFC0
:101E40000050064003000016034B5B6913F4000FBB
:101E5000FAD0014BD861704700B0064038B505464E
:101E6000002402E0FFF7F0FF0134285D0028F9D1DB
:101E700038BD00BF70B506460D46002403E0305D56
:101E8000FFF7E2FF0134AC42F9D370BD044B5B694C
:101E900013F4001FFAD0024BD869C0B2704700BFDC
:101EA00000B0064008B5FFF7F1FFFFF7CDFF0A20AD
:101EB000FFF7CAFF0D20FFF7C7FF08BD4FF0E02274
:101EC000D2F8883D43F47003C2F8883D064BA2F176
:101ED000DB62A2F5D7525A605A6842F220121A60A9
:101EE0004FF6FF729A607047002005401A4B1B4A5C
:101EF0009A4208D112E0184A52F82310174A42F8C1
:101F00002310013300E00023154AB3EB920FF2D304
:101F1000144B124A1A60144B144907E0114B0E4A35
:101F20001A60F8E713F8012B01F8012B104A9342CD
:101F3000F8D1104B104903E013F8012B01F8012BE5
:101F40000E4A9342F8D10E4B02E0002203F8012B17
:101F50000C4A9342F9D17047000000000000FF1FB7
:101F60000004000008ED00E0D07203000004FF1F31
:101F70007C7503007C750300AC06FF1F7C750300B5
:101F8000AC06FF1F741EFF1F20B108B503685B6815
:101F9000984708BD704700BF08B5836B03B19847E9
:101FA00008BD00BF08B5C36B03B1984708BD00BFAB
:101FB00090F85A3023B190F85B2012B1002300E072
:101FC000002313B190F8590070470020704700BFFC
:101FD00090F85A3023B190F85B2012B1002300E052
:101FE00000231846704700BF90F85800704700BFA4
:101FF000704700BF704700BF704700BF704700BF09
:10200000704700BF704700BF704700BF704700BFF8
:10201000704700BF704700BF704700BF704700BFE8
:10202000704700BF704700BF704700BF704700BFD8
:10203000704700BF704700BF70B582B0054602AB65
:1020400003E90600002426466B682A689B1AB4EB55
:10205000A30F11D252F82400019B13F0010F01D1FC
:10206000009A03E05A108158009A8A5800EB6300E6
:10207000904706440134E7E7304602B070BD00BF28
:1020800090F84000704700BF0078032814BF00207C
:10209000012070470078022814BF002001207047FB
:1020A000704700BF704700BF436A006A181A80106B
:1020B000704700BF032807D8DFE800F008040402D7
:1020C0000348704703487047034870470348704708
:1020D000C4090300D4090300E0090300CC0903008C
:1020E000022809D0032803D0012803D103487047F0
:1020F0000348704700207047024870477CFB02008D
:10210000F409030044FB0200704700BF704700BFA2
:10211000704700BF704700BF037993B170B50E469A
:1021200005460024EB68AA689B1AB4EBA30F07D2FC
:1021300052F8240003689B68314698470134F1E760
:1021400070BD7047037993B170B50E460546002403
:10215000EB68AA689B1AB4EBA30F07D252F82400CD
:1021600003681B69314698470134F1E770BD704739
:10217000037993B170B50E4605460024EB68AA6852
:102180009B1AB4EBA30F07D252F824000368DB6953
:10219000314698470134F1E770BD7047037993B138
:1021A00070B50E4605460024EB68AA689B1AB4EB8E
:1021B000A30F07D252F8240003689B693146984761
:1021C0000134F1E770BD7047037993B170B50E46E5
:1021D00005460024EB68AA689B1AB4EBA30F07D24C
:1021E00052F8240003681B6A314698470134F1E72E
:1021F00070BD7047037993B170B50E460546002453
:10220000EB68AA689B1AB4EBA30F07D252F824001C
:1022100003685B6A314698470134F1E770BD704747
:10222000037993B170B50E4605460024EB68AA68A1
:102230009B1AB4EBA30F07D252F8240003685B6B20
:10224000314698470134F1E770BD704703798BB18F
:1022500070B50E460546C36884681C1BA41044B1C3
:10226000013CAB6853F8240003685B69314698472A
:10227000F5E770BD704700BF03798BB170B50E46AE
:102280000546C36884681C1BA41044B1013CAB68BC
:1022900053F8240003689B6B31469847F5E770BDFF
:1022A000704700BF03798BB170B50E460546C36811
:1022B00084681C1BA41044B1013CAB6853F8240093
:1022C00003689B6A31469847F5E770BD704700BFC9
:1022D00003798BB170B50E460546C36884681C1B34
:1022E000A41044B1013CAB6853F8240003681B6B95
:1022F00031469847F5E770BD704700BF03798BB151
:1023000070B50E460546C36884681C1BA41044B112
:10231000013CAB6853F824000368DB6A31469847F8
:10232000F5E770BD704700BF03798BB170B50E46FD
:102330000546C36884681C1BA41044B1013CAB680B
:1023400053F8240003681B6C31469847F5E770BDCD
:10235000704700BF0379B3B12DE9F04190460F46B5
:1023600006460024F368B5685B1BB4EBA30F08D2E4
:1023700055F824000368DB68424639469847013423
:10238000F0E7BDE8F0817047F8B503798BB11746E7
:102390000E460546C36884681C1BA4104CB1013C62
:1023A000AB6853F824000368DB6B3A463146984724
:1023B000F4E7F8BD704700BF10B50446044B036056
:1023C000806810B103685B689847204610BD00BF65
:1023D000CCFD020008B503689B68984708BD00BFA4
:1023E00008B50368DB68984708BD00BF2F2814BFF5
:1023F00000200120704700BF70B500F12006036A7D
:10240000002572681C469A4206D01868FFF7ECFD5A
:1024100000B10135231DF4E7284670BD20B108B591
:1024200003685B68984708BD704700BF20B108B5D6
:1024300003685B68984708BD704700BF20B108B5C6
:1024400003685B68984708BD704700BF014B036095
:10245000704700BF4CFC0200014B0360704700BF97
:1024600038FC0200014B0360704700BF38FC0200DB
:10247000014B0360704700BF98FC020010B5044692
:10248000FFF79AFF20460BF0F0F9204610BD00BF81
:1024900010B50446024B03600BF0E7F9204610BD6F
:1024A00038FC020010B50446024B03600BF0DDF966
:1024B000204610BD38FC020010B50446024B0360F4
:1024C0000BF0D3F9204610BD4CFC020010B50446B9
:1024D000024B03600BF0C9F9204610BD98FC0200C6
:1024E00070B5064604684568A54208D0234653F8EF
:1024F000080B984201D00BF0B8F91834F4E73068B3
:1025000008B10BF0B2F9304670BD00BF10B50446FB
:10251000064B0360406804F10C03984201D00BF0B5
:10252000A4F9034B2360204610BD00BFD008030070
:102530004CFC020010B50446074B0360406804F1F0
:102540000C03984201D00BF090F9044B2360204615
:102550000BF08BF9204610BDD00803004CFC0200A4
:1025600010B50446064B0360406804F10C03984222
:1025700001D00BF07AF9034B2360204610BD00BF59
:10258000ACFE02004CFC020010B50446074B036091
:10259000406804F10C03984201D00BF066F9044B3B
:1025A000236020460BF061F9204610BDACFE02000E
:1025B0004CFC020008B5044825F0E6FB034600B9D0
:1025C000024B184608BD00BFF8090300ACFD02002D
:1025D00038B5036B0BB11D6800E00025436B0BB1F0
:1025E0001C6800E0002405B994B10A4826F086FA78
:1025F00045B12A460849094826F080FA14B108482E
:1026000026F07CFA24B122460649044826F076FAE0
:1026100038BD00BF100A0300540903001C0A030060
:10262000240A0300B0080300C0B170B50E4604468A
:102630000025207888B1B54203DB094826F05EFA10
:1026400070BD0A2804D1074826F058FA023502E086
:1026500026F0AAFA01350134EBE770BD704700BFE0
:102660001C2503002C0A030000B583B002AB43F81D
:10267000040D184625F07EFC003018BF012003B081
:102680005DF804FB70B500F12006036A002572684E
:102690001C469A4206D0186800F0D6FE00B10135FB
:1026A000231DF4E7284670BD70B500F12006036ACB
:1026B000002572681C469A4206D0186800F0BAFEDF
:1026C00000B10135231DF4E7284670BD70B500F157
:1026D0002006036A002572681C469A4206D01868D4
:1026E00000F082FE00B10135231DF4E7284670BDDD
:1026F00010B590F8404024B1FFF7E8FF002800DC57
:102700000024204610BD00BF70B500F12006036A0A
:10271000002572681C469A4206D01868FFF748FCEC
:1027200000B10135231DF4E7284670BD70B500F1F6
:102730002006036A002572681C469A4206D0186873
:10274000FFF746FC00B10135231DF4E7284670BDB4
:102750002DE9F047B6B08046CDE9002314AB18460A
:1027600016F0A4F9564B1493002430948DF8C4400D
:102770008DF8C5403294339434943594514DAB6800
:10278000029353F80C3C36A90B44EA6843F8D02C6A
:102790000394029B53F80C0C214602AB184416F02C
:1027A0000BF92B69049353F80C3C36A90B446A6966
:1027B00043F8C82C049B53F80C0C214604AB184476
:1027C00016F0FAF86B68029353F80C3C36A90B44E8
:1027D000AA6943F8D02C3C4D029505F1280ACDF8A2
:1027E00050A005F11409CDF81090384B05930694CC
:1027F0000794089409940A940B940CA80BF060FEBB
:10280000334E059618230D9310AF0E970F948DF845
:10281000404005A914AB184616F0CEF8DDE90001DA
:10282000FDF7D2FF24A3D3E90023FDF7FBFF41EC22
:10283000100B04A81CF0B7F9012226491CF08EF8F1
:1028400005A940461CF02AFB0295CDF850A0CDF812
:10285000109005960E98B84201D00BF006F81B4B6D
:1028600005930CA80BF05AF9164B5A68029252F8CD
:102870000C2C36A90A44996942F8D01C1A690492B2
:1028800052F80C2C36A90A44596942F8C81C9A68B7
:10289000029252F80C2C36A90A44DB6842F8D03C6C
:1028A000002303930846064B40F8883D16F03EF996
:1028B000404636B0BDE8F087FCA9F1D24D62503FEA
:1028C00080500300345A0300685A03002C5B030055
:1028D000705903005022030010B50446036843B149
:1028E000D8681433984201D00AF0BFFF20680AF07C
:1028F000BCFF204610BD00BF38B504460D46037826
:102900002A2B14D001D82BB11EE03A2B02D03F2B3A
:1029100005D019E02B78B3FA83F35B0920E00B783C
:10292000DBB101310130FFF7E7FF034618E00B7818
:1029300023B10131FFF7E0FF034688B92946601C47
:10294000FFF7DAFF03460BE02A78934207D1691CB0
:10295000601CFFF7D1FF034602E0002300E00023E4
:10296000184638BD70B506460C4631682046FFF75C
:10297000C3FF054638B93A21204626F074FB0446C9
:1029800008B10134F1E7284670BD00BF014A02607A
:102990004160704748FE0200014A02604160704792
:1029A00080FE0200006B704710B50C464068FFF7D0
:1029B000F9FF03689B682146984710BD806B7047FC
:1029C00070B500F14806836C002572681C469A4277
:1029D00006D01868FFF78CFE00B10135231DF4E71F
:1029E000284670BDC36C806C181A8010704700BFF9
:1029F00070B500F14806836C002572681C469A4247
:102A000006D01868FFF73CFB00B10135231DF4E741
:102A1000284670BD00B583B0064B00930023019398
:102A200002AB13E906004830FFF706FB03B05DF880
:102A300004FB00BF8526000000B583B0064B009361
:102A40000023019302AB13E906004830FFF7F4FAC4
:102A500003B05DF804FB00BFA926000000B583B0F9
:102A6000064B00930023019302AB13E906004830A4
:102A7000FFF7E2FA03B05DF804FB00BFCD260000CB
:102A800000B583B0064B00930023019302AB13E91A
:102A900006004830FFF7D0FA03B05DF804FB00BF32
:102AA0000927000000B583B0064B00930023019373
:102AB00002AB13E906004830FFF7BEFA03B05DF839
:102AC00004FB00BF2D27000000B583B0064B009328
:102AD0000023019302AB13E906004830FFF7ACFA7C
:102AE00003B05DF804FB00BFF9230000F0B583B02C
:102AF0000021684627F0FCFF0099CF17B8008A0034
:102B000040EA91735D0145EAD2655401A41A65EB70
:102B10000305621845EB0703D90041EA5271D00062
:102B200002460B460199064880FB0140C917C1EBDC
:102B3000A010141843EBE0752046294603B0F0BD01
:102B4000D34D621018B9B1FA81F04009704708B549
:102B500029B1FEF72DFBB0FA80F0400908BD002036
:102B600008BD00BF2DE9F8430746D0200AF081FEDA
:102B7000044600F14809484615F098FF314BA3641C
:102B80000025C4F8B85084F8BC5084F8BD50C4F88F
:102B9000C050C4F8C450C4F8C850C4F8CC502A4E31
:102BA000B368236053F80C3CF268E2506560236818
:102BB00053F80C0C2946204415F0FEFE04F10808D9
:102BC0003369A36053F80C3C726948F80320A3688A
:102BD00053F80C0C2946404415F0EEFE7368236050
:102BE00053F80C3CB269E250184B236003F1280201
:102BF000A2641433A360164BE36025616561A5618F
:102C0000E5612562656204F10C0604F128000BF011
:102C100057FC104BE3601823E36204F1380323638D
:102C2000656384F838503146484615F0C5FE3C606F
:102C3000A36853F80C3C434411225A603846BDE85F
:102C4000F88300BF80500300345A0300685A030021
:102C50002C5B0300705903000122027000224260C5
:102C6000704700BF002202704260704718B9B1FA85
:102C700081F04009704708B529B126F0D4F9B0FABF
:102C800080F0400908BD002008BD00BFF0B5B5B018
:102C900006460F4612A815F009FF614B1293002457
:102CA0002E948DF8BC408DF8BD4030943194329410
:102CB00033945C4DAB68009353F80C3C34AA134436
:102CC000EA6843F8D02C0194009B53F80C0C214681
:102CD000684415F071FE2B69029353F80C3C34AA3A
:102CE00013446A6943F8C82C029B53F80C0C214624
:102CF00002AB184415F060FE6B68009353F80C3C6F
:102D000034AA1344AA6943F8D02C474B009303F12B
:102D10002802129214330293444B039304940594B3
:102D200006940794089409940AA80BF0C9FB404B39
:102D3000039318230B930EAB0C930D948DF838402E
:102D400003A912A815F038FE029B53F80C4C02ABF5
:102D50001C4494F87530ABB9E56F0DB915F06BFDF7
:102D60002B7F13B195F83D0007E028460EF0D3FF06
:102D70002B689B6920212846984784F8740001231A
:102D800084F87530302384F87430029B53F80C3C7F
:102D900002AA134402229A60394602A81BF083FE5D
:102DA00003A930461CF07AF81F4B009303F1280268
:102DB0001292143302931E4B03930C980EAB98425D
:102DC00001D00AF052FD194B03930AA80AF0A6FE9F
:102DD000144B5A68009252F80C2C34A90A44996991
:102DE00042F8D01C1A69029252F80C2C34A90A44F9
:102DF000596942F8C81C9A68009252F80C2C34A900
:102E00000A44DB6842F8D03C002301930846044B97
:102E100040F8883D15F08AFE304635B0F0BD00BF61
:102E200080500300345A0300685A03002C5B0300EF
:102E300070590300F0B5B5B006460F4612A815F05C
:102E400035FE504B129300242E948DF8BC408DF823
:102E5000BD4030943194329433944B4DAB68009321
:102E600053F80C3C34AA1344EA6843F8D02C01947C
:102E7000009B53F80C0C2146684415F09DFD2B690E
:102E8000029353F80C3C34AA13446A6943F8C82CE3
:102E9000029B53F80C0C214602AB184415F08CFD34
:102EA0006B68009353F80C3C34AA1344AA6943F8A6
:102EB000D02C364B009303F1280212921433029364
:102EC000334B03930494059406940794089409944F
:102ED0000AA80BF0F5FA2F4B039318230B930EABB4
:102EE0000C930D948DF8384003A912A815F064FDD9
:102EF000029B53F80C4C02AB1C4494F87530ABB9F0
:102F0000E56F0DB915F097FC2B7F13B195F83D00D7
:102F100007E028460EF0FFFE2B689B69202128461B
:102F2000984784F87400012384F87530302384F8BE
:102F30007430029B53F80C3C02AA134402229A609C
:102F4000029951F80C2C02AB1A44D36823F04A03BF
:102F500043F00803D36051F80C3C02AA1344DA682A
:102F600042F48042DA60394602A81BF0A0FD03A9B2
:102F700030461BF093FF68461CF002FA304635B02D
:102F8000F0BD00BF80500300345A0300685A0300AC
:102F90002C5B0300705903002DE9F04389B004460F
:102FA0000C3102A81BF07AFF029D039905EB010882
:102FB00004F1080323600023636023724900204664
:102FC0001CF0F8FC454533D02E7896B96368C3F100
:102FD000FF4303F5FF0303F5FF437F33012B02D8C3
:102FE000184815F02EFC0222174920461CF052FE0C
:102FF0001CE0D4F8049009F10107234653F8082B8C
:103000009A4201D0A36800E00F239F4207D9012311
:10301000009300231A46494620461CF031FC2368E1
:1030200003F80960676023680022DA550135C9E7B3
:10303000029804AB984201D00AF017FC204609B070
:10304000BDE8F083BC0A0300300A030010B5044653
:103050000968FFF7A1FF204610BD00BF2DE9F0472A
:1030600086B080468A46D0200AF003FC044600F170
:103070004809484615F01AFD364BA3640025C4F8EC
:10308000B85084F8BC5084F8BD50C4F8C050C4F89F
:10309000C450C4F8C850C4F8CC502F4EB368236055
:1030A00053F80C3CF268E2506560236853F80C0C4E
:1030B0002946204415F080FC04F108073369A36019
:1030C00053F80C3C7269FA50A36853F80C0C29466B
:1030D000384415F071FC7368236053F80C3CB269F6
:1030E000E2501E4B236003F12802A2641433A36054
:1030F0001B4BE36025616561A561E5612562656241
:1031000004F10C0604F128000BF0DAF9154BE3602A
:103110001823E36204F138032363656384F83850AD
:103120003146484615F048FCC8F80040514668460C
:10313000FFF78CFF019A009938461BF00FFC0098AE
:1031400002AB984201D00AF090FB404606B0BDE8C1
:10315000F08700BF80500300345A0300685A030010
:103160002C5B03007059030030B58BB005460C464C
:1031700009A8FFF7F7FC06222249099808301BF03E
:10318000EDFB2CB92049099808301BF02FFC04E016
:103190002146099808301BF029FC09A903A8FFF76C
:1031A00055FF099818B110B103685B68984700246F
:1031B000099402A8FFF7D6FC049B9C420DD0039B08
:1031C000185D27F0A7FC0AA901F8210D0122029839
:1031D00008301BF0C3FB0134EEE702A92846FFF7D5
:1031E00035FF029818B110B103685B689847002357
:1031F0000293039805AB984201D00AF036FB2846AB
:103200000BB030BD440B0300E00A030030B40022D1
:1032100042608260C260026142618261C2610024D8
:103220000025C0E9084530BC704700BF70B50546B1
:1032300004694669A6420FD0A06904F120039842B0
:1032400001D00AF012FB234653F8080B984201D034
:103250000AF00BFB3034EDE7286908B10AF005FBF2
:103260006C68AE68A64216D0A06B04F14003984289
:1032700001D00AF0FAFA206A04F12803984201D03A
:103280000AF0F3FA606804F10C03984201D00AF0E6
:10329000ECFA5034E6E7686808B10AF0E6FA284626
:1032A00070BD00BFF8B50546476886683C46A64233
:1032B00016D0A06B04F14003984201D00AF0D5FA71
:1032C000206A04F12803984201D00AF0CEFA60681F
:1032D00004F10C03984201D00AF0C7FA5034E6E733
:1032E000AF602F696E693C46A6420FD0A06904F119
:1032F0002003984201D00AF0B8FA234653F8080B8D
:10330000984201D00AF0B1FA3034EDE76F61002342
:10331000EB6100220023C5E90823F8BD08B5603041
:10332000FFF7C0FF08BD00BF70B5061D406800254F
:1033300073680446834206D0FEF7ACFE00B1013547
:1033400004F15000F4E7002DD4BF0020012070BD2F
:10335000836840681B1A1B11014800FB03F070478B
:10336000CDCCCCCC38B505460C1E05DBFFF7F0FF05
:10337000844203DA002302E0012300E001230BB1C1
:1033800023F0ACFFAB6868681B1A1B11064A02FBEE
:1033900003F2944203D32146044815F055FA04EB96
:1033A00084042301184438BDCDCCCCCC4C0B030095
:1033B00038B5054600242846FFF7CAFF844210DAD4
:1033C00021462846FFF7CEFF0378022B03D0012BBE
:1033D00003D0002002E0012000E0012010B90134F8
:1033E000E9E7002038BD00BF08B5034690F8580053
:1033F00018B118466030FFF7DBFF08BDF8B504468A
:10340000FFF7D6FF90B90746261D60680025736850
:103410000446834206D0FEF737FE00B1013504F1C1
:103420005000F4E7002D02DD012700E000273846B8
:10343000F8BD00BF08B5034690F8580018B118460B
:103440006030FFF7DBFF08BD70B590F8585075B1DC
:1034500000F160042046FFF7D1FF064620B9204660
:10346000FFF7A6FF10B902E0002500E03546284628
:1034700070BD00BF436900691B1A1B11014800FBA6
:1034800003F07047ABAAAAAA38B505460C1E05DBA7
:10349000FFF7F0FF844203DA002302E0012300E09B
:1034A00001230BB123F01AFF6B6928691B1A1B114A
:1034B000064A02FB03F2944203D32146044815F066
:1034C000C3F904EB44042301184438BDABAAAAAAEB
:1034D0004C0B03002DE9F04705463F4B0360B42039
:1034E0000AF0C7F9044600F10C034360002383602F
:1034F000037300F11C0A00F12402C261036280F828
:10350000243000F1380900F140028263C36380F87F
:10351000403000F1500800F158020265436580F820
:10352000583000F16C0700F17402C266036780F83E
:10353000743000F1980600F1A002C0F89820C0F89D
:103540009C3080F8A030254B1B780370244B1B78EF
:103550004370244B1B788370234904301CF069F9B5
:10356000224950461CF065F9214B1B7884F8343011
:10357000204948461CF05DF91F4940461CF059F9A6
:103580001E4B1B7884F868301D4938461CF051F9F1
:103590001C4B1B7884F884301B4B1B7884F88530D7
:1035A0001A4B1B68C4F88830194B1B68C4F88C3060
:1035B000184B1B7884F89030174B1B68C4F8943074
:1035C000164930461CF035F9154B1B7884F8B0309D
:1035D0006C602846BDE8F08794090300D806FF1FF9
:1035E000DA06FF1FD906FF1F9807FF1FE006FF1F1F
:1035F000D706FF1F3C07FF1F0007FF1F6807FF1FBD
:103600008007FF1FF806FF1F7007FF1F1C07FF1F23
:103610006407FF1F5507FF1F1807FF1F2407FF1F21
:103620002007FF1F38B50546414B03604468002C56
:1036300079D0002C77D022783E4B1A7062783E4BBE
:103640001A70A2783D4B1A70211D3D481CF0F1F80C
:1036500004F11C013B481CF0ECF894F834203A4B80
:103660001A7004F1380139481CF0E3F804F15001F4
:1036700037481CF0DEF894F86820364B1A7004F1D5
:103680006C0135481CF0D5F894F88420334B1A703F
:1036900094F88520324B1A70D4F88820314B1A6088
:1036A000D4F88C20304B1A6094F890202F4B1A706D
:1036B000D4F894202E4B1A6004F198012D481CF088
:1036C000B8F894F8B0202C4B1A70D4F8980004F194
:1036D000A003984201D00AF0C8F8E06E04F1740328
:1036E000984201D00AF0C1F8206D04F158039842C5
:1036F00001D00AF0BAF8A06B04F14003984201D05F
:103700000AF0B3F8E06904F12403984201D00AF00A
:10371000ACF8606804F10C03984201D00AF0A5F8F7
:1037200020460AF0A2F800236B60284638BD00BF8F
:1037300094090300D806FF1FDA06FF1FD906FF1FF2
:103740009807FF1FE006FF1FD706FF1F3C07FF1F5C
:103750000007FF1F6807FF1F8007FF1FF806FF1FF6
:103760007007FF1F1C07FF1F6407FF1F5507FF1F80
:103770001807FF1F2407FF1F2007FF1F38B5044647
:10378000C06D10B103685B68984704F16000FFF7F3
:103790004DFDA06B04F14003984201D00AF065F89A
:1037A000656B55B14DB12B4653F8080B984201D0CB
:1037B0000AF05BF828460AF058F800236363256B8B
:1037C00055B14DB12B4653F8080B984201D00AF081
:1037D0004CF828460AF049F800232363A06904F155
:1037E0002003984201D00AF040F8234653F8080B12
:1037F000984201D00AF039F8204638BD38B110B5EA
:103800000446FFF7BBFF20460AF02FF810BD7047B3
:1038100090F86C307BB970B50646046E456EA542D3
:1038200005D054F8040B03681B699847F7E7012398
:1038300086F86C3070BD7047002908DB036BC26AE4
:103840009B1AB1EBA30F05DA52F8213004E04FF0D8
:10385000FF3301E04FF0FF33002B03DB026A52F825
:103860002300704700207047002908DB036BC26A01
:103870009B1AB1EBA30F05DA52F8213004E04FF0A8
:10388000FF3301E04FF0FF33002B03DB026A52F8F5
:1038900023007047002070470023026BC16A521A50
:1038A000B3EBA20F03D241F823300133F5E77047A1
:1038B00038B50546344B1C6834492046FFF7D6F925
:1038C000002846D0324824F05FFA04463149FFF719
:1038D00039F9034600283AD12F492046FFF732F93B
:1038E0000346A0BB2D492046FFF72CF9034670BBC9
:1038F0002B492046FFF726F9034640BB29492046BD
:10390000FFF720F9034610BB27492046FFF71AF9B5
:103910000346E0B925492046FFF714F90346B0B93C
:1039200023492046FFF70EF9034680B92149204676
:10393000FFF708F9034650B91F492046FFF702F97F
:10394000034620B91D492046FFF7FCF80346C5B1E0
:1039500018E01B492046FFF789F9034690B9194939
:103960002046FFF783F9034660B917492046FFF761
:103970007DF9034630B915492046FFF7E3F80346C1
:1039800000E00023184638BD9807FF1F980B03007E
:10399000A00B0300A80B0300B00B0300BC0B03003B
:1039A000CC0B0300D40B0300E40B0300EC0B03006F
:1039B000FC0B03000C0C0300240C03002C0C030074
:1039C000340C0300380C0300400C03007CFB0200A5
:1039D0000EB430B582B0044605AB53F8045B0193D6
:1039E0001A4B1B6813F0010F10D1194B1B68986814
:1039F00023F00EFE27F084F8003018BF0120FFF7F7
:103A000057FF144B18700122104B1A60114B1B7892
:103A100013B114B9002300E0002323B9019928460B
:103A200027F0E8FB0DE02046FEF75AFB01460A4866
:103A300025F064F80199284627F0DCFB074825F0BB
:103A40005DF802B0BDE8304003B07047DC06FF1FF0
:103A5000EC04FF1F5407FF1F440C0300500C03002D
:103A600008B506490220FFF7B3FF054825F00AF91B
:103A7000044B1B68986823F0B9FD08BD540C030083
:103A8000640C0300EC04FF1F08B506490220FFF791
:103A90009FFF054825F0F6F8044B1B68986823F053
:103AA000A5FD08BD540C0300840C0300EC04FF1FAB
:103AB00010B50C4608490220FFF78AFFA269216869
:103AC000064825F01BF80A2025F06EF8044B1B6809
:103AD000986823F08BFD10BDA80C0300B80C030000
:103AE000EC04FF1F2DE9F04188B080460E461746D2
:103AF00001A8FFF737F8002473689C4280F091809A
:103B000033681D5DA5F122031C2B49D8DFE803F0C3
:103B1000364848481D244848484848484848484886
:103B2000484848484848484848480F481600042232
:103B30004349019808301AF011FF70E0042241490E
:103B4000019808301AF00AFF69E005223E49019801
:103B500008301AF003FF62E037B106223B490198B2
:103B600008301AF0FBFE5AE008A9272301F81F3D90
:103B70000122019808301AF0F1FE50E037B1062218
:103B80003349019808301AF0E9FE48E008A92223D9
:103B900001F81E3D0122019808301AF0DFFE3EE0D8
:103BA000A5F10903DBB2012B03D90D2D03D10122AD
:103BB00002E0012200E0002212B91F2D00D90122EB
:103BC0006AB32FB1012B04D90D2D02D0002200E0E1
:103BD0000022E2B103221F49019808301AF0BEFE0C
:103BE000294602A8FFF726F9039A0299019808309E
:103BF0001AF0B4FE01221849019808301AF0AEFEFE
:103C0000029804AB98420AD009F02FFE07E008A9F9
:103C100001F81D5D0122019808301AF09FFE013461
:103C20006AE701A94046FFF711FA019818B110B1EF
:103C300003685B689847404608B0BDE8F08100BF64
:103C4000C00C0300C80C0300D00C0300D80C030008
:103C5000E00C0300E80C0300D40C03002DE9F04352
:103C600083B006460D4600F108030360002343605D
:103C7000037249681BF09EFE2A6829686B680B4432
:103C800017469A4232D01478A4F10903DBB2012B13
:103C900003D90D2C03D1012302E0012300E000230E
:103CA00013B91F2C00D90123F3B1D6F8049009F100
:103CB0000108334653F8082B9A4201D0B36800E05C
:103CC0000F23984507D90123009300231A4649463C
:103CD00030461BF0D5FD336803F80940C6F8048070
:103CE0003368002203F808207A1CC6E7304603B088
:103CF000BDE8F083000000002DE9F047B6B0804633
:103D0000CDE9002314AB184614F0D0FE544B1493A5
:103D1000002430948DF8C4408DF8C540329433941B
:103D2000349435944F4DAB68029353F80C3C36A94C
:103D30000B44EA6843F8D02C0394029B53F80C0C14
:103D4000214602AB184414F037FE2B69049353F854
:103D50000C3C36A90B446A6943F8C82C049B53F801
:103D60000C0C214604AB184414F026FE6B68029339
:103D700053F80C3C36A90B44AA6943F8D02C3A4DB1
:103D8000029505F1280ACDF850A005F11409CDF8E7
:103D90001090364B059306940794089409940A945E
:103DA0000B940CA80AF08CFB314E059618230D934A
:103DB00010AF0E970F948DF8404005A914AB18462C
:103DC00014F0FAFDDDE90001FCF7FEFC22A3D3E9C3
:103DD0000023FCF727FD41EC100B04A81AF0E3FECA
:103DE00005A940461BF05AF80295CDF850A0CDF831
:103DF000109005960E98B84201D009F036FD1B4B85
:103E000005930CA809F08AFE164B5A68029252F8E4
:103E10000C2C36A90A44996942F8D01C1A690492FC
:103E200052F80C2C36A90A44596942F8C81C9A6801
:103E3000029252F80C2C36A90A44DB6842F8D03CB6
:103E4000002303930846064B40F8883D14F06EFEAD
:103E5000404636B0BDE8F087FCA9F1D24D62503F34
:103E600080500300345A0300685A03002C5B03009F
:103E70007059030070B506460C46092216491AF01F
:103E80006DFD1649204625F05BFE054658B1021B24
:103E9000214630461AF09EFC1222114930461AF093
:103EA0005DFDEC1CEDE74CB9336853F80C0C304465
:103EB000416941F0010114F00FFD07E02046FDF7D4
:103EC00081F90246214630461AF048FD0322034993
:103ED00030461AF043FD70BDEC0C0300F80C0300F3
:103EE000FC0C0300F0B589B007460E4601A8FEF7AA
:103EF00039FE002573689D426DD233685C5D0C2CE1
:103F000038D006D8092C27D00A2C2CD0082C3FD129
:103F10001BE0222C07D002D80D2C32D038E02F2CF9
:103F200001D05C2C34D108A95C2301F81E3D01228C
:103F3000019808301AF012FD08A901F81F4D01225E
:103F4000019808301AF00AFD43E00222284901983E
:103F500008301AF003FD3CE002222649019808309F
:103F60001AF0FCFC35E002222349019808301AF0CF
:103F7000F5FC2EE002222149019808301AF0EEFCEF
:103F800027E002221E49019808301AF0E7FC20E0E1
:103F90001F2C16D804221B49019808301AF0DEFCA9
:103FA000214602A8FEF746FF039A029901980830BD
:103FB0001AF0D4FC029804AB98420AD009F055FCE0
:103FC00007E008A901F81D4D0122019808301AF0F8
:103FD000C5FC01358EE701A93846FFF737F801988F
:103FE00018B110B103685B689847384609B0F0BD56
:103FF000400A03004C0A03002C0A0300440A030091
:10400000480A0300100D030010B50446142009F0FF
:1040100030FC064B03600123037100238360C360FF
:10402000036120606360A360204610BDFCFC0200B9
:1040300010B50446006810B103685B6898472046D5
:1040400010BD00BF0068704708B58068FEF7CAFC65
:1040500008BD00BF08B58068FEF7CAFC08BD00BFF8
:1040600008B58068FEF7D6FC08BD00BF08B58068BB
:10407000FEF7E2FC08BD00BF08B58068FEF7EEFC65
:1040800008BD00BF08B58068FEF7FAFC08BD00BF98
:1040900008B58068FEF706FD08BD00BF08B580685A
:1040A000FEF712FD08BD00BF8368D3E932017047F7
:1040B0008368D3E93401704710B584682046FEF761
:1040C0007FFC002804DC04F18000FFF771F900E0B8
:1040D000012080F00100C0B210BD00BF836800293C
:1040E00008DB9A6D586D121AB1EBA20F05DA50F881
:1040F000212004E04FF0FF3201E04FF0FF32002AB0
:1041000003DB9B6C53F8210070470020704700BF11
:104110002DE9F0478246FFF7A9FF002842D04FF073
:1041200000095046FFF790FF81453BDA494650466B
:10413000FFF7D4FF064690F84080B8F1000F05D095
:10414000FEF7B2FA20B14FF0000801E04FF001088D
:10415000B8F1000F23D100243046FDF7A5FF8442BB
:104160001DDA21463046FFF767FB074690F85850A6
:104170002DB16030FFF742F910B1454600E001254E
:104180005DB909490220FFF723FCBA697168074845
:1041900024F0B4FC0A2024F007FD0134DCE709F127
:1041A0000109BEE7BDE8F087180D0300B80C030055
:1041B0002DE9F0478246FFF75FFF002845D04FF01A
:1041C00000095046FFF740FF81453EDA4946504618
:1041D000FFF784FF074690F84080B8F1000F05D044
:1041E000FEF774FA20B14FF0000801E04FF001082B
:1041F000B8F1000F26D100243846FDF755FF844260
:1042000020DA21463846FFF717FB064690F858504B
:104210002DB16030FFF7CCF810B1454600E0012524
:1042200075B90B490120FFF7D3FBB26979680948DA
:1042300024F064FC3046FEF7CBF90A2024F0B4FCED
:104240000134D9E709F10109BBE7BDE8F08700BFF8
:10425000280D0300B80C030080688030704700BF51
:104260008068A830704700BF83689868704700BFB7
:104270008368D3F8BC00704710B50D4823F084FD67
:10428000A0B104460B4923F017FB68B9084B22463E
:1042900009490120FFF79CFB084B1B68986823F035
:1042A000A5F9012023F082F823F0E6F810BD00BF45
:1042B0006CFD0200380D03003C0D0300EC04FF1FF1
:1042C00092FBF0F300FB1320884214BF0020012072
:1042D000704700BF10B50446D0F8B43033B904209D
:1042E00009F0C7FA034B0360C4F8B400D4F8B40073
:1042F00010BD00BF94FE020070B504461646084685
:10430000FFF7E8FF014603689D68731C024A1268C4
:104310002046A847204670BD1807FF1F836F13B1C2
:1043200003F160007047436F13B103F15000704711
:104330008030704738B505460024EB6CAA6C9B1A98
:10434000B4EBA30F08D252F82400FFF7A5FA6B6D67
:1043500043F824400134F0E738BD00BF704700BF88
:1043600001207047F8B507460D46FCF72BFF0446C1
:104370002E6802463946304625F0BAFB18B9344457
:104380002C600120F8BD0020F8BD00BF00B583B04F
:1043900002A941F8040D1248FFF7E4FF50B901A942
:1043A0001048FFF7DFFF28B901A90F48FFF7DAFF30
:1043B000034688B101A90D48FFF7D4FF58B901A9F8
:1043C0000B48FFF7CFFF034630B901A90948FFF7B3
:1043D000C9FF034600E00023184603B05DF804FB64
:1043E0009C0D0300A00D030078120300A40D030030
:1043F000440B0300B40D030008B52F21006825F01D
:104400008CFB08BD00B591B001A9006826F07AFBCD
:10441000B0FA80F0400911B05DF804FB00B591B02E
:1044200001A9006826F06EFB38B9029B03F47043C3
:10443000B3F5804F03D1012002E0002000E000200E
:1044400011B05DF804FB00BF08B503681878FDF7EC
:10445000CDFF08BD08B543682BB10268013BD05CB5
:10446000FDF7C4FF08BD002008BD00BF10B504461D
:1044700040F2FF110068FDF739FCB0F1FF3F03D1B6
:104480002046FFF7CBFF10BD012010BDF0B583B073
:104490000646046834B9002100911A4B42681BF0AB
:1044A00075FB2CE04068013009F0F4F907467268AA
:1044B0000132002123F079FF3D46237873B12B7040
:1044C0002078FDF793FF08B9013405E02078FDF767
:1044D0008DFF08B10134F9E70135EEE700242C70B7
:1044E00075683846FCF76EFE00903B462A4621462A
:1044F00030461BF04BFB17B1384609F0B8F903B052
:10450000F0BD00BFBC10030038B5144B1A6852F858
:104510000C2C1344DC6F0CB914F08DF90546237F85
:1045200013B194F8271008E020460DF0F4FB23683F
:104530009B690A2120469847014608481AF029F944
:104540001AF0B5F82B78032B06D1054B1B68D868F9
:1045500023F04CF822F0C2FE284638BD4808FF1F61
:10456000EC04FF1F10B504460222002123F05EFA7E
:10457000204623F0F1FA10BD10B586B00C46014676
:104580006846FEF7F1FD009823F0FEFB28B10749CD
:10459000FCF70EFE041C18BF0124009802AB9842E1
:1045A00001D009F062F9204606B010BDF80D0300F5
:1045B00030B587B00D4601466846FEF7D5FD009838
:1045C00023F0E2FB044600B92C46009802AB984267
:1045D00001D009F04AF9204607B030BDF0B583B0EC
:1045E0000446084615464F685268BE1851F8083B05
:1045F000994201D0816800E00F218E420BD92946F3
:1046000051F808EB8E4501D0A96800E00F218E42D9
:1046100003D8012102E0002100E0002141B16A68D5
:1046200002B100220097002128461BF0AFFA02E0F9
:1046300029681BF02FFB04F108012160034653F8A1
:10464000082B9A4208D11F685E689D68DA68A760E7
:10465000E6602561626102E022608268A2604268D1
:1046600062600360002242601A70204603B0F0BD11
:1046700070B505460C6834B9006806220E4908304A
:104680001AF06CF915E0036803F108064CB99B6851
:1046900053F80C0C3044416941F0010114F01CF94D
:1046A00007E02046FCF78EFD0246214630461AF010
:1046B00055F9284670BD00BFE00A030030B59DB033
:1046C0000546019114461CAB002243F8642D0846B0
:1046D0000A22194626F03AF9039B1B78002B46D094
:1046E00002A8FEF73FFA4A49029808301AF07EF90C
:1046F000029C0834294610A8FEF7A8FC119A1099CC
:1047000020461AF02BF9109812AB984201D009F00C
:10471000ACF84049029808301AF068F93E4902980E
:1047200008301AF063F901A902A8FFF7A1FF006899
:104730003A4908301AF05AF902A904A8FEF786FC93
:104740000499374824F0DAF9049806AB984201D06E
:1047500009F08BF8334B1B68986822F047FF0298EA
:1047600018B110B103685B68984700204EE000F173
:104770000043013B13F1030F46D902A8FEF7F2F9FB
:104780002349029808301AF031F9029C083429466E
:1047900016A8FEF75BFC179A169920461AF0DEF869
:1047A000169818AB984201D009F05FF819490298A1
:1047B00008301AF01BF91C49029808301AF016F953
:1047C00001A902A8FFF754FF0068184908301AF041
:1047D0000DF902A90AA8FEF739FC0A99104824F03D
:1047E0008DF90A980CAB984201D009F03EF80D4BB8
:1047F0001B68986822F0FAFE029818B110B103689D
:104800005B689847002001E0206001201DB030BDAA
:10481000680E0300740E0300A80E0300B80E030018
:10482000F0100300EC04FF1FBC0E0300C80E0300D1
:1048300070B582B005460C4623F0A6FA48B306468A
:1048400001A8FEF78FF922221349019808301AF0C7
:1048500085F82DB91149019808301AF0C7F804E01D
:104860002946019808301AF0C1F86A46314601A875
:10487000FFF724FF0446019818B110B103685B6884
:1048800098470023019314B9012022F08FFD00986E
:1048900000E0204602B070BDDC0E0300E00A030019
:1048A000002A40F02681F0B597B00D464FF0FF3159
:1048B000FFF7BEFF04464FF0FF312846FFF7B8FF71
:1048C0000546B4F1FF3F03D1B0F1FF3F00F0138183
:1048D000B4F1FF3F4BD1B5F1FF3F48D001A8FEF73F
:1048E00041F98649019808301AF080F88449019806
:1048F00008301AF07BF88349019808301AF076F8EE
:104900002946019808301AF0CEF87F4901980830FE
:104910001AF06CF87D49019808301AF067F87C4964
:10492000019808301AF062F801A96846FEF796FB74
:10493000019818B110B103685B6898470023019390
:10494000694602A8FEF782FB029A72490120FFF72E
:104950003FF8029804AB984201D008F086FF6E4BF6
:104960001B68986822F042FE012022F01FFDB4F17E
:10497000FF3F4BD0B5F1FF3F48D108A8FEF7F2F852
:104980005E49089808301AF031F8604908980830F4
:104990001AF02CF85B49089808301AF027F82146DD
:1049A000089808301AF07FF85749089808301AF02C
:1049B0001DF85349089808301AF018F85449089817
:1049C00008301AF013F808A96846FEF747FB089864
:1049D00018B110B103685B689847002308936946D3
:1049E00009A8FEF733FB099A4A490120FEF7F0FFB8
:1049F00009980BAB984201D008F037FF464B1B6873
:104A0000986822F0F3FD012022F0D0FC002D01DB9C
:104A1000AC4269DC0FA8FEF7A5F840490F980830B2
:104A200019F0E4FF364E31460F98083019F0DEFFDA
:104A30003B490F98083019F0D9FF344F39460F9889
:104A4000083019F0D3FF37490F98083019F0CEFF1E
:104A500031460F98083019F0C9FF334E31460F9890
:104A6000083019F0C3FF29460F9808301AF01BF8D8
:104A70002E490F98083019F0B9FF39460F980830C1
:104A800019F0B4FF31460F98083019F0AFFF2146F6
:104A90000F9808301AF007F825490F98083019F0D8
:104AA000A5FF0FA96846FEF7D9FA0F9818B110B103
:104AB00003685B68984700230F93694610A8FEF7C8
:104AC000C5FA109A13490120FEF782FF109812AB25
:104AD000984201D008F0C9FE0F4B1B68986822F07D
:104AE00085FD012022F062FC012CD4BF00200120B2
:104AF00002E000207047002017B0F0BD000F030057
:104B0000400903002C0F0300300F030040FD02009A
:104B1000440F0300F0100300EC04FF1F500F0300CC
:104B2000800F0300840F0300940F0300601603003E
:104B3000CC0F030030B591B00C46014602A8FEF739
:104B400013FB029823F020F9002844D00546019475
:104B500008A8FEF707F8152223490898083019F02D
:104B6000FDFE039A02990898083019F0F7FE01AA91
:104B7000294608A8FFF7A2FD0546089818B110B10C
:104B800003685B689847002308931DBB0FA8FDF7D7
:104B9000E9FF21460F98083019F085FF0FA909A8F1
:104BA000FEF754FA0999114823F0A8FF09980BABB6
:104BB000984201D008F059FE0F9818B110B103685F
:104BC0005B68984700230F93094B1B68986822F095
:104BD0000DFD00E0019C029804AB984201D008F062
:104BE00044FE204611B030BD980F0300B00F030003
:104BF000EC04FF1F00487047D506FF1F08B5FFF7FC
:104C0000F9FF08BD30B583B004460D4601A8FDF795
:104C1000A9FF29680198083019F045FF01A920462D
:104C2000FEF714FA019818B110B103685B68984751
:104C3000204603B030BD00BF2DE9F0418EB00446E0
:104C4000019190461F4601A908A8FFF7DBFF6FF00E
:104C50000042099B9A4202D1334813F0F2FD01222F
:104C6000324908A81BF016F8054604AB0293064625
:104C700056F8083BB34208D10DF1100E3068716848
:104C8000B268F368AEE80F0002E002938368049311
:104C90006B6803932E6000236B602B72019B012BCA
:104CA00001D1454600E03D462846FCF78BFA024616
:104CB000039BC3F1FF4303F5FF0303F5FF437F337A
:104CC000984202D9184813F0BCFD294602A81AF0F0
:104CD000E1FF04F108012160034653F8082B9A42D2
:104CE00008D11F685E689D68DA68A760E660256184
:104CF000626102E022608268A260426862600360D2
:104D0000002343600372029804AB984201D008F07C
:104D1000ACFD08980AAB984201D008F0A6FD2046E9
:104D20000EB0BDE8F08100BFBC0A0300AC31030047
:104D300010B50446024B034AFFF77EFF204610BD24
:104D4000EC0F0300F40F030010B50446024B034AB6
:104D5000FFF772FF204610BDFC0F03000810030090
:104D600030B58DB00C46304B1B68012B03D0511C65
:104D70002E4823F0C3FE2E4B1D682E492846FDF712
:104D8000E1FE28B92B462C4A2C490320FEF720FED1
:104D900000222B492B48FFF783FD70B14FF0FF3104
:104DA0002748FFF745FD451C264822F0EDFF034646
:104DB0002A4625490320FEF70BFE244B1B783BB106
:104DC0002046FFF755FA024621490320FEF700FE70
:104DD00020490220FEF7FCFD2046FFF75FF901465F
:104DE0006846FFF7A5FF009D2046FFF733F901460F
:104DF00006A8FFF7A9FF069A2946174823F07EFE6A
:104E0000069808AB984201D008F02FFD009802AB3D
:104E1000984201D008F029FD104B1B68986822F0D9
:104E2000E5FB0DB030BD00BF6407FF1F1410030089
:104E30003C07FF1FACFD0200401003004C100300B4
:104E40004009030040FD0200641003005507FF1FE6
:104E500088100300C0100300D0100300EC04FF1FF3
:104E600010B586B00C460846FDF7C6FA164B174A31
:104E700001466846FFF7E0FE15490220FEF7A8FD4F
:104E800062680099134823F039FEE3690BB11A6890
:104E900000E000221AB90A2023F086FE07E00BB1D9
:104EA0001A6800E000220C490C4823F027FE0C4B46
:104EB0001B68986822F09AFB009802AB984201D0D8
:104EC00008F0D3FC06B010BDEC0F0300F40F030094
:104ED000540C0300E810030054090300F41003000D
:104EE000EC04FF1F30B5E7B00446104619464FF4F6
:104EF0007A720023FBF730FF01A9FDF7B5FB28B953
:104F00000AAA614920461AF0F1FFB9E0069B03F2B4
:104F10006C73479347A941A8FFF774FE5B4D294680
:104F200041A81AF0F3FE01463BA81AF0FDFC0599D2
:104F3000013148A8FDF7AAFE48AA3BA935A8FFF70A
:104F40004DFB294635A81AF0E1FE01462FA81AF0BC
:104F5000EBFC04994EA8FDF799FE4EAA2FA929A8AB
:104F6000FFF73CFB4A4929A81AF0D0FE014623A8C6
:104F70001AF0DAFC039954A8FDF788FE54AA23A975
:104F80001DA8FFF72BFB434D29461DA81AF0BEFEB6
:104F9000014617A81AF0C8FC02995AA8FDF776FE38
:104FA0005AAA17A911A8FFF719FB294611A81AF048
:104FB000ADFE01460BA81AF0B7FC019960A8FDF7F9
:104FC00065FE60AA0BA92046FFF708FB609862AB5C
:104FD000984201D008F049FC0B980DAB984201D0E3
:104FE00008F043FC119813AB984201D008F03DFC47
:104FF0005A985CAB984201D008F037FC179819AB6F
:10500000984201D008F031FC1D981FAB984201D0A6
:1050100008F02BFC549856AB984201D008F025FCC0
:10502000239825AB984201D008F01FFC29982BABA0
:10503000984201D008F019FC4E9850AB984201D02C
:1050400008F013FC2F9831AB984201D008F00DFC0A
:10505000359837AB984201D008F007FC48984AAB26
:10506000984201D008F001FC3B983DAB984201D03A
:1050700008F0FBFB419843AB984201D008F0F5FBE8
:10508000204667B030BD00BFBC100300A00D030078
:105090000811030030FA020030B5EDB004461046A6
:1050A00019464FF47A720023FBF756FE01A9FDF76B
:1050B000DBFA28B90AAA684920461AF017FFC7E0A8
:1050C000069B03F26C734D934DA947A8FFF79AFD19
:1050D000624D294647A81AF019FE014641A81AF068
:1050E00023FC059901314EA8FDF7D0FD4EAA41A938
:1050F0003BA8FFF773FA29463BA81AF007FE0146C2
:1051000035A81AF011FC049954A8FDF7BFFD54AA64
:1051100035A92FA8FFF762FA51492FA81AF0F6FD1A
:10512000014629A81AF000FC03995AA8FDF7AEFD24
:105130005AAA29A923A8FFF751FA4A4D294623A8BC
:105140001AF0E4FD01461DA81AF0EEFB029960A8D2
:10515000FDF79CFD60AA1DA917A8FFF73FFA294695
:1051600017A81AF0D3FD014611A81AF0DDFB01992A
:1051700066A8FDF78BFD66AA11A90BA8FFF72EFA0A
:1051800039490BA81AF0C2FD014620461AF0CCFBA3
:105190000B980DAB984201D008F067FB669868AB9E
:1051A000984201D008F061FB119813AB984201D0EE
:1051B00008F05BFB179819AB984201D008F055FB3B
:1051C000609862AB984201D008F04FFB1D981FAB6E
:1051D000984201D008F049FB239825AB984201D0B2
:1051E00008F043FB5A985CAB984201D008F03DFBB5
:1051F00029982BAB984201D008F037FB2F9831ABA0
:10520000984201D008F031FB549856AB984201D037
:1052100008F02BFB359837AB984201D008F025FBFE
:105220003B983DAB984201D008F01FFB4E9850AB25
:10523000984201D008F019FB419843AB984201D045
:1052400008F013FB479849AB984201D008F00DFBDA
:1052500020466DB030BD00BFBC100300A00D0300A0
:105260000811030030FA02000C11030030B583B0BE
:1052700004460D4601A8FDF775FCD5E90023019809
:10528000083019F050FC01A92046FDF7DFFE019817
:1052900018B110B103685B689847204603B030BD71
:1052A00070B588B00C4601F160052846FEF7A6F8F7
:1052B00030B906462846FEF77BF810B9012600E013
:1052C000002626B11E490220FEF782FB0CE028468C
:1052D000FEF794F820B11B490220FEF779FB03E0AA
:1052E00019490120FEF774FBA2692168174823F0D1
:1052F00005FC2846FEF75CF810B12046FDF768F97A
:10530000134B1B7893B1D4E92023CDE9062306A9DA
:105310006846FFF7ABFF00990E4823F0EFFB0098BB
:1053200002AB984205D008F0A0FA02E00A2023F070
:105330003BFC094B1B68986822F058F908B070BD17
:1053400010110300180D0300280D0300B80C030012
:10535000F806FF1F20110300EC04FF1F1B4B1B78F6
:10536000002B32D070B58EB00C460846FDF744F8DD
:10537000174B184A01466846FFF75EFC16490220A3
:10538000FEF726FB009D6668D4E91223CDE90C23C5
:105390000CA906A8FFF76AFF069B324629460F486C
:1053A00023F0ACFB069808AB984201D008F05DFAF8
:1053B0000B4B1B68986822F019F9009802AB9842D1
:1053C00001D008F052FA0EB070BD7047F806FF1F0A
:1053D000EC0F0300F40F0300540C03002C11030026
:1053E000EC04FF1F70B5A6B00C4659490220FEF729
:1053F000EFFA2046FEF752FE01466846FFF798FC9A
:10540000009D2046FEF726FE014606A8FFF79CFCFD
:10541000069A29464F4823F071FB069808AB98423C
:1054200001D008F022FA009802AB984201D008F0AF
:105430001CFA494B1B7893B12046FEF739FECDE9A3
:10544000120112A90CA8FFF711FF0C99434823F091
:1054500055FB0C980EAB984201D008F006FA0A20D2
:1054600023F0A2FB3E490220FEF7B2FA2046FEF7E7
:10547000F7FD014614A8FFF75BFC1499394823F0A7
:105480003DFB149816AB984201D008F0EEF9204687
:10549000FEF7ECFD051E14DD33490220FEF798FAF5
:1054A00029461AA8FFF744FC1A99304823F026FB36
:1054B0001A981CAB984201D008F0D7F92046FEF7A5
:1054C00027FE2046FEF7D8FD05462046FEF7F4FDF0
:1054D00008BB2046FEF7D0FD064625490120FEF711
:1054E00077FA314620A8FFF723FC20991F4823F0C4
:1054F00005FB209822AB984201D008F0B6F920466F
:10550000FEF756FE012D01D11A4A00E01A4A29463B
:105510001A4823F0F3FA2046FEF7B4FD044680B1A2
:10552000174B1B786BB915B90A2023F03DFB012CF2
:1055300001D1104B00E0104B224612490320FEF728
:1055400047FA114B1B68986822F050F826B070BDDE
:10555000C010030058110300F806FF1F6811030074
:1055600078110300E0100300180D030088110300F8
:10557000280D030048110300501103009C11030083
:10558000D806FF1FAC110300EC04FF1F70B50446E2
:105590000E461546236832689A4206D053F8040C2A
:1055A000A8472368043B2360F4E7284670BD00BF8A
:1055B00008B542684B689A4209D10068096812B17F
:1055C00022F0BEFE00E0002018B9012008BD002036
:1055D00008BD002008BD00BF61B110B50C460B46E8
:1055E00053F8080B984201D008F03FF9204608F024
:1055F0003CF910BD704700BF30B587B004460D467A
:10560000436873B9182008F034F900F10803036007
:105610000023436003726168606011B1201DFFF7D1
:10562000DBFF646829466846FDF710FD009D2846AB
:10563000FBF7C8FD6368C3F1FF4303F5FF0303F500
:10564000FF437F33984202D9074813F0FAF8024625
:10565000294620461AF01EFB009802AB984201D062
:1056600008F003F907B030BDBC0A030070B504466A
:105670000E461546A64203D054F8040BA847F9E796
:10568000284670BD08B50A4641680068FFF7EEFF7E
:1056900008BD00BFF0B583B00123009342680368E2
:1056A000D31AB3F1FF3F02D1194813F0CAF80446E8
:1056B0000E4601930BB9694600E001A90D681D442F
:1056C0002368D21A954201D24FF0FF3525B1284602
:1056D00008F0CFF8074600E00027636822689B1AAD
:1056E0003278DF4200D0FA5421686268561A03D03B
:1056F0003246384622F03EFE3E440136206808B16C
:1057000008F0B3F8276066603D44A56003B0F0BDC3
:10571000D4110300814209D00139884206D20378AE
:105720000A7800F8012B01F80139F6E7704700BF4D
:105730002DE9F04F2DED068B91B001908B469146EF
:105740004B680F68DF1BBF100137536814681C1BC0
:10575000A410013408D0B4F1005F01D313F068F84D
:10576000E00008F086F800E000200A902CB100224A
:105770000023E0E80223013CF8E70B905FB1AE4B59
:105780009F4201D913F054F807EB4700800008F05E
:1057900070F8064600E00026079637B316B30A9C59
:1057A0000B9B1C1B002333607360B360E01009D0B7
:1057B000B0F1005F01D313F03BF8C00008F059F8D6
:1057C000054600E00025356075602C44B4600A99F8
:1057D0000B9C641AE30803D02246284622F0CAFD37
:1057E0002C447460013F0C36D7E708960A9808B13C
:1057F00008F03BF8DBF80430DBF80070DF1BBF106B
:105800000137D9F80430D9F800401C1BA41001342A
:1058100003D0204608F02DF800E000200D9024B1C0
:10582000002300F8013B013CF9E70E905FB1824B89
:105830009F4201D912F0FCFF07EB4700800008F0FF
:1058400018F8064600E00026049627B306B30E9B20
:105850000D9D002232607260B2605D1B04D028464C
:1058600008F007F8804601E04FF00008C6F8008015
:10587000C6F8048008EB0503B3600D990E9B5C1A13
:1058800003D02246404622F075FD08EB0403736006
:10589000013F0C36D9E705960D9808B107F0E5FFF2
:1058A00000240799089B5B1A9B10644A02FB03F3D0
:1058B0009C420ED204EB4405AD004E592046FAF747
:1058C0003BFFC6E90001049B5B5902221A700134B8
:1058D000E7E70124079B5A681B68D21AB4EBE20F72
:1058E0000CD203EBC4052046FAF726FFC5E90001F8
:1058F000049B1B6801221A551444EBE74FF0000883
:10590000DBF80430DBF800209B1AB8EBA30F80F023
:1059100099800025D9F80430D9F800209B1AB5EBFE
:10592000A30F80F08280DBF8003053F8281052F883
:105930002530994218D108F10103079803EB43037E
:105940009B006A1CC15801EBC20108EB480450F8E7
:10595000240000EBC500D0E90067C1E900670499A5
:10596000CB58002199545EE008F10103079903EB3D
:1059700043039C0051F804A0EB000AEB030292EDF4
:10598000008B08EB48026F1C51F82220FE00911991
:1059900091ED009B134493ED00AB53EC192B51ECAC
:1059A000180BFBF7B1F9A0B153EC1A2B51EC180B03
:1059B000FBF7AAF968B156440022214B51EC180BB1
:1059C000FAF77EFDC6E90001049B1B590122DA5556
:1059D00029E053EC192B51EC180BFBF7B3F9A0B1EC
:1059E00053EC1A2B51EC190BFBF78EF968B15644A6
:1059F0000022134B51EC190BFAF762FDC6E90001C6
:105A0000049B1B590222DA550DE0564408A3D3E942
:105A1000002351EC1A0BFAF753FDC6E90001049B71
:105A20001B590322DA55013574E708F1010867E7CD
:105A300072C45A7C0A00F03F55555515ABAAAAAA64
:105A40000000F03F0023019E33607360B360DBF819
:105A50000430DBF800401C1BA410D9F80430D9F83E
:105A600000505D1BAD1004B90DB304EB4403049A60
:105A700052F823305B5D8DF80F307368B268934243
:105A800007D09DF80F2003B11A707368013373605B
:105A900004E00DF10F013046FFF7FCFD9DF80F30DB
:105AA000012B18BF013C022B18BF013DDBE74FF073
:105AB0000002019841680068FFF72CFE049C059DD8
:105AC000A54205D0206808B107F0CFFE0C34F7E7F7
:105AD000049808B107F0C9FE079C089DA54205D0AF
:105AE000206808B107F0C1FE0C34F7E7079808B149
:105AF00007F0BBFE019811B0BDEC068BBDE8F08F3E
:105B000070B506460C4684B1E1683046FFF7F8FFF1
:105B1000A568206904F11803834201D007F0A5FEAF
:105B2000204607F0A2FE2C46EDE770BD38B50546CD
:105B30000068A84204D0046807F097FE2046F8E702
:105B400038BD00BF00B583B002AB03E90600019B7E
:105B500013F0010F01D1009A03E05A108158009A06
:105B60008A5800EB6300904703B05DF804FB00BF68
:105B700000B583B002AB03E90600019B13F0010FEF
:105B800001D1009A03E05A108158009A8A5800EB1C
:105B90006300904703B05DF804FB00BF70B5044696
:105BA0000E461546A64203D054F8040BA847F9E761
:105BB000284670BD08B50A4641680068FFF7EEFF49
:105BC00008BD00BF10B504465030FDF76BFB03491C
:105BD00004F12000FFF7EEFF10BD00BF1D330000F1
:105BE00008B5FFF7EFFF08BD38B50446144B40F881
:105BF000203B1449FFF7DEFF04F15000FDF716FBD0
:105C0000E06A08B107F031FE206A08B107F02DFE06
:105C1000E56955B14DB12B4653F8080B984201D0B8
:105C200007F023FE284607F020FE0023E3616068AA
:105C300004F10C03984201D007F017FE204638BD4E
:105C400050080300FD37000010B50446FFF7CCFFF5
:105C5000204607F00AFE204610BD00BFF0B583B015
:105C600004460D460123009342680368D31A9B1033
:105C700001930BB9694600E001A90E681E44236830
:105C8000D21AB6EBA20F03D3B6F1804F03D204E0D1
:105C90006FF0404601E06FF040464EB1B6F1804FE4
:105CA00001D312F0C5FDB00007F0E3FD074600E0A8
:105CB0000027636822689B1A2A68DF4200D0FA50E6
:105CC000216865686D1AAB0803D02A46384622F071
:105CD00051FB3D440435206808B107F0C6FD27603C
:105CE000656007EB8606A66003B0F0BD00B583B023
:105CF00002AB03E90600019B13F0010F01D1009AEA
:105D000003E05A108158009A8A5800EB63009047CC
:105D100003B05DF804FB00BF70B504460E4615469F
:105D2000A64203D054F8040BA847F9E7284670BDF3
:105D300008B50A4641680068FFF7EEFF08BD00BFDE
:105D400010B50446064B40F8083B0649FFF7F0FF44
:105D5000A06808B107F089FD034B2360204610BD01
:105D6000FCFC02001D2400004CFC020010B504469F
:105D7000FFF7E6FF204607F078FD204610BD00BF84
:105D8000F0B583B004460D460123009342680368D2
:105D9000D31A9B1001930BB9694600E001A90E6864
:105DA0001E442368D21AB6EBA20F03D3B6F1804F7C
:105DB00003D204E06FF0404601E06FF040464EB180
:105DC000B6F1804F01D312F033FDB00007F051FD62
:105DD000074600E00027636822689B1A2A68DF42B2
:105DE00000D0FA50216865686D1AAB0803D02A46C6
